:020000040800F2
:1000000000000220CD120008E9110008EF110008DD
:10001000F5110008FB1100080112000800000000A3
:1000200000000000000000000000000007120008AF
:100030001512000800000000231200083112000809
:100040001D1300081D1300081D1300081D130008D0
:100050001D1300081D1300081D1300081D130008C0
:100060001D1300081D1300081D1300081D130008B0
:100070001D1300081D1300081D1300081D130008A0
:100080001D1300081D1300081D1300081D13000890
:100090001D1300081D1300081D1300081D13000880
:1000A0001D1300081D1300081D1300081D13000870
:1000B0001D1300081D1300081D1300081D13000860
:1000C0001D1300081D1300081D1300081D13000850
:1000D0001D1300081D1300081D1300081D13000840
:1000E0001D1300081D1300081D1300081D13000830
:1000F0001D1300081D1300081D1300081D13000820
:100100001D1300081D1300081D1300081D1300080F
:100110001D1300081D1300081D1300081D130008FF
:100120001D1300081D1300081D1300081D130008EF
:100130001D13000800000000000000001D1300084F
:100140001D1300081D1300081D1300081D130008CF
:100150001D1300081D1300081D1300081D130008BF
:100160001D1300081D1300081D1300081D130008AF
:100170001D1300081D1300081D13000800000000D7
:10018000000000001D130008000000000000000037
:100190001D13000800000000000000001D130008EF
:1001A0000000000000000000000000001D13000817
:1001B0001D1300081D1300081D1300081D1300085F
:0401C0001D13000803
:1001D00010B5054C237833B9044B13B10448AFF381
:1001E00000800123237010BD780000200000000073
:1001F000DC47000808B5034B1BB103490348AFF3C4
:10020000008008BD000000007C000020DC470008E2
:1002100001F0FF01102A2BDB10F0070F08D010F8B7
:10022000013B013A8B422DD010F0070F42B3F6D1BB
:10023000F0B441EA012141EA014122F007047FF0D4
:1002400000070023F0E80256083C85EA010586EA2B
:10025000010685FA47F5A3FA87F586FA47F6A5FA67
:1002600087F68EB9EED1F0BC01F0FF0102F0070273
:1002700032B110F8013B013A83EA010313B1F8D11E
:100280000020704701387047002D06BF35460338FF
:10029000073815F0010F07D1013015F4807F02BF38
:1002A000013015F4C03F0130F0BC0138704700BF89
:1002B00053B94AB9002908BF00281CBF4FF0FF31CD
:1002C0004FF0FF3000F074B9ADF1080C6DE904CEC9
:1002D00000F006F8DDF804E0DDE9022304B0704721
:1002E0002DE9F047089D04468E46002B4DD18A42E9
:1002F000944669D9B2FA82F252B101FA02F3C2F11C
:10030000200120FA01F10CFA02FC41EA030E9440AC
:100310004FEA1C48210CBEFBF8F61FFA8CF708FBCD
:1003200016E341EA034306FB07F199420AD91CEBA5
:10033000030306F1FF3080F01F81994240F21C81D7
:10034000023E63445B1AA4B2B3FBF8F008FB10331F
:1003500044EA034400FB07F7A7420AD91CEB040454
:1003600000F1FF3380F00A81A74240F20781644424
:10037000023840EA0640E41B00261DB1D4400023A9
:10038000C5E900433146BDE8F0878B4209D9002D0D
:1003900000F0EF800026C5E9000130463146BDE897
:1003A000F087B3FA83F6002E4AD18B4202D3824201
:1003B00000F2F980841A61EB030301209E46002DB0
:1003C000E0D0C5E9004EDDE702B9FFDEB2FA82F205
:1003D000002A40F09280A1EB0C014FEA1C471FFA63
:1003E0008CFE0126200CB1FBF7F307FB131140EA4A
:1003F00001410EFB03F0884208D91CEB010103F117
:10040000FF3802D2884200F2CB804346091AA4B2D8
:10041000B1FBF7F007FB101144EA01440EFB00FEAC
:10042000A64508D91CEB040400F1FF3102D2A64511
:1004300000F2BB800846A4EB0E0440EA03409CE7B0
:10044000C6F12007B34022FA07FC4CEA030C20FA5D
:1004500007F401FA06F31C43F9404FEA1C4900FA7D
:1004600006F3B1FBF9F8200C1FFA8CFE09FB1811FA
:1004700040EA014108FB0EF0884202FA06F20BD96D
:100480001CEB010108F1FF3A80F08880884240F2BD
:100490008580A8F102086144091AA4B2B1FBF9F001
:1004A00009FB101144EA014100FB0EFE8E4508D9FC
:1004B0001CEB010100F1FF346CD28E456AD9023881
:1004C000614440EA0840A0FB0294A1EB0E01A14266
:1004D000C846A64656D353D05DB1B3EB080261EBD4
:1004E0000E0101FA07F722FA06F3F1401F43C5E9AE
:1004F000007100263146BDE8F087C2F12003D840E4
:100500000CFA02FC21FA03F3914001434FEA1C4725
:100510001FFA8CFEB3FBF7F007FB10360B0C43EA17
:10052000064300FB0EF69E4204FA02F408D91CEBC7
:10053000030300F1FF382FD29E422DD902386344C5
:100540009B1B89B2B3FBF7F607FB163341EA034165
:1005500006FB0EF38B4208D91CEB010106F1FF38B4
:1005600016D28B4214D9023E6144C91A46EA0046AB
:1005700038E72E46284605E70646E3E61846F8E63D
:100580004B45A9D2B9EB020864EB0C0E0138A3E786
:100590004646EAE7204694E74046D1E7D0467BE767
:1005A000023B614432E7304609E76444023842E7DF
:1005B000704700BF80B5A6B004AF01F0EBF800F0C3
:1005C00075FA00F0F7FB00F0E3FA00F033FB00F0FF
:1005D0005FFB00F08BFB00F0B7FB00F0D9FE0521BC
:1005E000052001F08DF8C94A012306CAC84801F068
:1005F00061F8034687F8873000F058FF002387F83A
:100600008630C44BC7F880304FF08B43FB67002324
:1006100087F87B3064230293012301930023009326
:1006200001236B22D021BC4801F094FF0A2001F085
:1006300023F9002387F87B3064230293012301937D
:100640006D23009301231922D021B34801F082FFCA
:100650000A2001F011F9002387F87B30642302930C
:10066000012301931823009301231B22D021AA48C0
:1006700001F070FF0A2001F0FFF8002387F87B30BB
:1006800064230293012301930823009301231C2276
:10069000D021A14801F05EFF0A2001F0EDF800230F
:1006A00087F87B3064230293012301930123009395
:1006B00001233822D021984801F04CFF0A2001F094
:1006C000DBF86423029301230193002300930123A9
:1006D0006A22D021904801F03DFF0A2001F0CCF8B9
:1006E0006423029301230193022300930123372201
:1006F000D021894801F02EFF0A2001F0BDF86423C3
:1007000002930123019318230093012300221E2149
:10071000814801F01FFF0A2001F0AEF86423029324
:100720000123019360230093012301221E217A48B3
:1007300001F010FF0A2001F09FF8642302930123C7
:10074000019300230093012302221E21724801F02D
:1007500001FF0A2001F090F8642302930123019322
:100760000023009301233722D0216B4801F0F2FED1
:100770000A2001F081F864230293012301932023CE
:10078000009301236A22D021634801F0E3FE0A208E
:1007900001F072F864230293012301939E230093D6
:1007A00001232522D0215C4801F0D4FE0A2001F06B
:1007B00063F864230293012301930323009301232D
:1007C0002622D021544801F0C5FE0A2001F054F839
:1007D000642302930123019386230093012327229C
:1007E000D0214D4801F0B6FE0A2001F045F86423FF
:1007F0000293012301930123009301236722D02157
:10080000454801F0A7FE0A2001F036F86423029360
:100810001423019307F11403009301233B22D021F9
:100820003D4801F091FF3B7D1B021AB27B7D1BB25C
:100830001343A7F87830BB7D1B021AB2FB7D1BB2B5
:100840001343A7F876303B7E1B021AB27B7E1BB2A5
:100850001343A7F87430BB7E1B021AB2FB7E1BB297
:100860001343A7F872303B7F1B021AB27B7F1BB287
:100870001343A7F87030BB7F1B021AB2FB7F1BB279
:100880001343A7F86E3097F820301B021AB297F87E
:1008900021301BB21343A7F86C3097F822301B02AB
:1008A0001AB297F823301BB21343A7F86A3097F8AF
:1008B00024301B021AB297F825301BB21343A7F855
:1008C000683097F826301B021AB297F827301BB20F
:1008D0001343A7F86630B7F9783007EE903AB8EED0
:1008E000E77ADFED0E6AC7EE267AFDEEE77A17EEBD
:1008F000903AA7F86430B7F9763007EE903AB8EE40
:10090000E77ADFED066AC7EE267A11E004000020E0
:10091000F447000833330342DC00002000000046A7
:100920000000AA43B81E1242A6E96A44000025440A
:10093000FDEEE77A17EE903AA7F86230B7F9743017
:1009400007EE903AB8EEE77A5FED0C6AC7EE267ACA
:10095000FDEEE77A17EE903AA7F86030B7F97230FB
:1009600007EE903AB8EEE77A5FED136AC7EE267AA3
:100970001FED147A77EE877AFDEEE77A17EE903A5C
:10098000A7F85E30B7F9703007EE903AB8EEE77A24
:100990005FED1B6AC7EE267AFDEEE77A17EE903A16
:1009A000A7F85C30B7F96E3007EE903AB8EEE77A08
:1009B0005FED236AC7EE267AFDEEE77A17EE903AEE
:1009C000A7F85A30B7F96C3007EE903AB8EEE77AEC
:1009D0005FED2B6AC7EE267AFDEEE77A17EE903AC6
:1009E000A7F85830B7F96A3007EE903AB8EEE77AD0
:1009F0005FED326AC7EE267AFDEEE77A17EE903A9F
:100A0000A7F85630B7F9683007EE903AB8EEE77AB3
:100A10005FED3A6AC7EE267AFDEEE77A17EE903A76
:100A2000A7F85430B7F9663007EE903AB8EEE77A97
:100A30005FED426AC7EE267AFDEEE77A17EE903A4E
:100A4000A7F85230B7F9782007F10C03154918467A
:100A500003F07EFA0021002000F052FE124A07F156
:100A60000C00012306CA00F025FE034687F851302A
:100A700000F01CFDB7F976203B1D0A49184603F02B
:100A800067FA0F21002000F03BFE074A381D0123C2
:100A900006CA00F00FFE034687F8513000F006FD4D
:100AA000B4E600BFFC4700080400002080B594B005
:100AB00000AF07F11C0334220021184603F040FA6E
:100AC00007F1080300221A605A609A60DA601A611E
:100AD00000237B602C4B1B6C2B4A43F08053136428
:100AE000294B1B6C03F080537B607B6800233B60C9
:100AF000264B1B68254A43F440431360234B1B6875
:100B000003F440433B603B680223FB610123BB626B
:100B10001023FB6202237B630023BB630823FB6378
:100B2000B4233B6402237B640223BB640223FB6483
:100B300007F11C03184602F089FE0346002B01D082
:100B400000F0A4F902F082FB0346002B01D000F074
:100B50009DF90F23BB600223FB6000233B614FF430
:100B6000A0537B614FF48053BB6107F1080305215B
:100B7000184602F0BBFB0346002B01D000F086F9BB
:100B800000BF5037BD4680BD0038024000700040B5
:100B900080B584B000AF3B4600221A605A609A606C
:100BA000DA60214B214A1A601F4B4FF480325A60A1
:100BB0001D4B00229A601C4B00221A611A4B002226
:100BC0001A76194B002283F82020174B0022DA6294
:100BD000154B174A9A62144B0022DA60124B01221D
:100BE000DA61114B002283F830200F4B01225A6149
:100BF0000D4800F065FE0346002B01D000F046F9D9
:100C000001233B6001237B600023BB603B46194608
:100C1000054800F099FE0346002B01D000F036F99C
:100C200000BF1037BD4680BD940000200020014069
:100C30000100000F80B500AF124B134A1A60114B30
:100C4000124A5A600F4B00229A600E4B0022DA6063
:100C50000C4B4FF480421A610A4B00225A61094B37
:100C600000229A61074B0022DA61064B00221A62C9
:100C7000044801F02BFB0346002B01D000F006F9DD
:100C800000BF80BDDC00002000540040801A060038
:100C900080B500AF124B134A1A60114B124A5A60CA
:100CA0000F4B00229A600E4B0022DA600C4B4FF47F
:100CB00080421A610A4B00225A61094B00229A6154
:100CC000074B0022DA61064B00221A62044801F049
:100CD000FDFA0346002B01D000F0D8F800BF80BD1C
:100CE0003001002000580040A086010080B500AF10
:100CF000124B134A1A60114B124A5A600F4B0022D2
:100D00009A600E4B0022DA600C4B4FF480421A615D
:100D10000A4B00225A61094B00229A61074B0022BC
:100D2000DA61064B00221A62044801F0CFFA03464A
:100D3000002B01D000F0AAF800BF80BD8401002084
:100D4000005C0040801A060080B500AF174B184ABF
:100D50001A60164B4FF482725A60144B00229A604C
:100D6000124B0022DA60114B00221A610F4B002255
:100D70005A610E4B4FF400729A610C4B0022DA61FB
:100D80000A4B00221A62094B00225A62074B0022CA
:100D90009A62064B0A22DA62044802F0F5FF034623
:100DA000002B01D000F072F800BF80BDD8010020F8
:100DB0000030014080B58AB000AF07F11403002273
:100DC0001A605A609A60DA601A6100233B612C4B0A
:100DD0001B6B2B4A43F080031363294B1B6B03F0FF
:100DE00080033B613B690023FB60254B1B6B244A5E
:100DF00043F004031363224B1B6B03F00403FB60FB
:100E0000FB680023BB601E4B1B6B1D4A43F00103B4
:100E100013631B4B1B6B03F00103BB60BB68002318
:100E20007B60174B1B6B164A43F002031363144B92
:100E30001B6B03F002037B607B68002208211148D2
:100E400001F02AFA08237B610123BB610023FB61C7
:100E500000233B6207F1140319460A4801F088F8A1
:100E600018237B610023BB610023FB6107F114039E
:100E70001946054801F07CF800BF2837BD4680BD03
:100E800000380240000802400004024080B400AF75
:100E900072B600BFFEE7000080B483B000AF00234D
:100EA0007B60104B5B6C0F4A43F4804353640D4BE3
:100EB0005B6C03F480437B607B6800233B60094BE1
:100EC0001B6C084A43F080531364064B1B6C03F001
:100ED00080533B603B6800BF0C37BD465DF8047B28
:100EE000704700BF0038024080B58AB000AF78601C
:100EF00007F1140300221A605A609A60DA601A61DE
:100F00007B681B68174A934227D100233B61164B2D
:100F10005B6C154A43F480735364134B5B6C03F4AE
:100F200080733B613B690023FB600F4B1B6B0E4AD8
:100F300043F0010313630C4B1B6B03F00103FB60D5
:100F4000FB6802237B610323BB610023FB6107F184
:100F500014031946054801F00BF800BF2837BD46B9
:100F600080BD00BF00200140003802400000024068
:100F700080B590B000AF786007F12C0300221A60B2
:100F80005A609A60DA601A617B681B686B4A934208
:100F90002DD10023BB626A4B1B6B694A43F00203ED
:100FA0001363674B1B6B03F00203BB62BB6A4FF416
:100FB0004073FB6212233B6300237B630323BB6309
:100FC0000423FB6307F12C0319465E4800F0D0FFB1
:100FD00000237B625A4B1B6C594A43F40013136481
:100FE000574B1B6C03F400137B627B6AA2E07B68A7
:100FF0001B68554A93424CD100233B62504B1B6BFC
:101000004F4A43F0020313634D4B1B6B03F0020383
:101010003B623B6A0023FB61494B1B6B484A43F030
:1010200004031363464B1B6B03F00403FB61FB6972
:101030004FF48063FB6212233B6300237B63032333
:10104000BB630423FB6307F12C0319463D4800F002
:101050008FFF4FF48053FB6212233B6300237B63BB
:101060000323BB630423FB6307F12C0319463748B2
:1010700000F07EFF0023BB61314B1B6C304A43F410
:10108000800313642E4B1B6C03F48003BB61BB69AC
:1010900050E07B681B682E4A93424BD100237B6152
:1010A000274B1B6B264A43F004031363244B1B6B33
:1010B00003F004037B617B6900233B61204B1B6BC6
:1010C0001F4A43F0010313631D4B1B6B03F0010325
:1010D0003B613B694FF40073FB6212233B630023C7
:1010E0007B630323BB630423FB6307F12C031946D3
:1010F000164800F03DFF4FF48073FB6212233B6300
:1011000000237B630323BB630423FB6307F12C03EE
:101110001946104800F02CFF0023FB60084B1B6CA5
:10112000074A43F400031364054B1B6C03F40003EC
:10113000FB60FB6800BF4037BD4680BD00540040E7
:1011400000380240000402400058004000080240FD
:10115000005C00400000024080B58AB000AF7860BB
:1011600007F1140300221A605A609A60DA601A616B
:101170007B681B68194A93422BD100233B61184BB3
:101180005B6C174A43F480535364154B5B6C03F458
:1011900080533B613B690023FB60114B1B6B104A82
:1011A00043F0010313630E4B1B6B03F00103FB6061
:1011B000FB68E0237B610223BB610023FB61032307
:1011C0003B6205237B6207F114031946054800F0D2
:1011D000CFFE00BF2837BD4680BD00BF00300140B4
:1011E000003802400000024080B400AFFEE780B447
:1011F00000AFFEE780B400AFFEE780B400AFFEE7CB
:1012000080B400AFFEE780B400AF00BFBD465DF81C
:10121000047B704780B400AF00BFBD465DF8047B1F
:10122000704780B400AF00BFBD465DF8047B7047D7
:1012300080B500AF00F000FB00BF80BD80B586B078
:1012400000AF7860144A154BD31A7B617B693B6110
:10125000134B1B68002B02D1114B124A1A60104B22
:101260001A687B6813443A699A4207D202F016FE64
:1012700003460C221A604FF0FF3309E0084B1B684D
:10128000FB60074B1A687B681344054A1360FB68D0
:1012900018461837BD4680BD00000220000400003B
:1012A000300200205004002080B400AF064BD3F879
:1012B0008830054A43F47003C2F8883000BFBD4649
:1012C0005DF8047B704700BF00ED00E0DFF834D02C
:1012D0000D480E490E4A002302E0D458C45004338E
:1012E000C4188C42F9D30B4A0B4C002301E0136065
:1012F0000432A242FBD3FFF7D7FF02F0D5FDFFF780
:1013000059F97047000002200000002078000020FA
:10131000C84F00087800002050040020FEE780B489
:1013200000AF00BFBD465DF8047B704780B586B056
:1013300004AF0346FB714FF0FF3302930123019387
:10134000FB1D0093012300227821034801F002F9DC
:1013500000BF0837BD4680BD3001002080B586B093
:1013600004AF786039603B689BB24FF0FF32029265
:1013700001937B680093012340227821034801F008
:10138000E9F800BF0837BD4680BD00BF300100202E
:1013900080B500AFFFF7C3FF642000F06DFA0020B6
:1013A00000F0DAF92020FFF7C1FF0020FFF7BEFFB1
:1013B000B020FFF7BBFFC820FFF7B8FF0020FFF702
:1013C000B5FF1020FFF7B2FF4020FFF7AFFFFF206F
:1013D00000F0AEF9A120FFF7A9FFA620FFF7A6FFB6
:1013E000A820FFF7A3FF1F20FFF7A0FFA420FFF70F
:1013F0009DFFD320FFF79AFF0020FFF797FFD5202E
:10140000FFF794FFF020FFF791FFD920FFF78EFF41
:101410002220FFF78BFFDA20FFF788FF0220FFF77B
:1014200085FFDB20FFF782FF2020FFF77FFF8D2065
:10143000FFF77CFF1420FFF779FF012000F08CF903
:10144000002000F00FF800F031F8054B00221A8060
:10145000034B00225A80024B01221A7100BF80BD4B
:101460003404002080B485B000AF0346FB71002334
:10147000FB600DE0FB79002B01D1002100E0FF2192
:10148000094AFB6813440A461A70FB680133FB6083
:10149000FB68B3F5007FEDD300BF00BF1437BD4636
:1014A0005DF8047B704700BF3402002080B582B035
:1014B00000AF0023FB7116E0FB79503BDBB218460E
:1014C000FFF734FF0020FFF731FF1020FFF72EFF5A
:1014D000FB79DB01084A134480211846FFF73EFFE1
:1014E000FB790133FB71FB79032BE5D900BF00BF0A
:1014F0000837BD4680BD00BF3402002080B483B0F1
:1015000000AF0346FB710B46BB7113467B7197F925
:101510000730002B3DDBBB791F2B3AD87B79012BA1
:101520001AD1FA79BB79DB08D8B20346DB01134440
:101530001B4AD35C5AB2BB7903F00703012101FABD
:1015400003F35BB2134359B2FA790346DB01134448
:10155000C9B2134AD1541DE0FA79BB79DB08D8B27D
:101560000346DB0113440E4AD35C5AB2BB7903F045
:101570000703012101FA03F35BB2DB435BB21340C3
:1015800059B2FA790346DB011344C9B2044AD15473
:1015900000E000BF0C37BD465DF8047B704700BF1C
:1015A0003402002090B589B000AF0446381D80E8B1
:1015B00006001A462346FB731346BB73FB7B1F2BA7
:1015C00002D9FB7B7E2B01D900236DE0384B1B88B1
:1015D0001A463B791344802B06DC354B5B881A4650
:1015E0007B791344202B01DD00235DE00023FB61A8
:1015F0004CE0BA68FB7B203B797901FB03F3194689
:10160000FB690B445B0013441B887B610023BB61B7
:1016100034E07A69BB6902FA03F303F40043002B58
:1016200012D0234B1B88DAB2BB69DBB21344D8B2A9
:101630001F4B5B88DAB2FB69DBB21344DBB2BA7BC7
:101640001946FFF75BFF16E0194B1B88DAB2BB693E
:10165000DBB21344D8B2164B5B88DAB2FB69DBB25B
:101660001344D9B2BB7B002B0CBF01230023DBB298
:101670001A46FFF743FFBB690133BB613B791A464A
:10168000BB699342C5D3FB690133FB617B791A4681
:10169000FB699342ADD3064B1A883B799BB2134446
:1016A0009AB2034B1A80FB7B18462437BD4690BD87
:1016B0003404002080B584B000AFF860381D80E8A5
:1016C0000600FB7012E0FB681878FB783A1D06CA2A
:1016D000FFF768FF03461A46FB681B789A4202D060
:1016E000FB681B7808E0FB680133FB60FB681B7834
:1016F000002BE8D1FB681B7818461037BD4680BD2B
:1017000080B483B000AF03460A46FB711346BB7139
:10171000FB799AB2054B1A80BB799AB2034B5A8077
:1017200000BF0C37BD465DF8047B704734040020D1
:1017300080B584B000AF0346FB718123FB73FB7B54
:101740001846FFF7F3FDFB791846FFF7EFFD00BFE2
:101750001037BD4680BD000080B584B000AF0346A1
:10176000FB71FB79002B05D0AF23FB73084B0122E3
:101770005A7104E0AE23FB73054B00225A71FB7BC8
:101780001846FFF7D3FD00BF1037BD4680BD00BF30
:101790003404002080B500AF0E4B1B680D4A43F4A3
:1017A000007313600B4B1B680A4A43F48063136099
:1017B000084B1B68074A43F480731360032000F052
:1017C000A3FB0F2000F008F8FFF766FB0023184684
:1017D00080BD00BF003C024080B582B000AF7860A1
:1017E000124B1A68124B1B7819464FF47A73B3FBED
:1017F000F1F3B2FBF3F3184600F0ADFB0346002B08
:1018000001D001230EE07B680F2B0AD800227968F3
:101810004FF0FF3000F083FB064A7B681360002323
:1018200000E0012318460837BD4680BD00000020B7
:10183000100000200C00002080B400AF064B1B7885
:101840001A46064B1B681344044A136000BFBD468A
:101850005DF8047B704700BF100000203C040020AE
:1018600080B400AF034B1B681846BD465DF8047B8F
:10187000704700BF3C04002080B584B000AF7860A2
:10188000FFF7EEFFB8607B68FB60FB68B3F1FF3FDA
:1018900005D00A4B1B781A46FB681344FB6000BF57
:1018A000FFF7DEFF0246BB68D31AFA689A42F7D800
:1018B00000BF00BF1037BD4680BD00BF1000002034
:1018C00080B584B000AF78600023FB737B68002B89
:1018D00001D1012333E07B681B6C002B09D17868B0
:1018E000FFF702FB7B6800225A647B68002283F8C2
:1018F0003C207B681B6C03F01003002B18D17B6825
:101900001B6C23F4885323F0020343F002027B682C
:101910001A64786800F04AF97B6800225A647B6890
:101920001B6C23F0030343F001027B681A6401E09F
:101930000123FB737B68002283F83C20FB7B184665
:101940001037BD4680BD000080B485B000AF786020
:1019500039600023BB607B6893F83C30012B01D1D8
:10196000022313E17B68012283F83C203B681B685B
:10197000092B25D97B681B68D9683B681B689BB21B
:101980001A4613465B0013441E3B072202FA03F378
:10199000DA437B681B680A40DA607B681B68D96899
:1019A0003B689A683B681B689BB2184603465B001D
:1019B00003441E3B9A407B681B680A43DA6022E0BE
:1019C0007B681B6819693B681B689BB21A46134603
:1019D0005B001344072202FA03F3DA437B681B68B7
:1019E0000A401A617B681B6819693B689A683B6802
:1019F0001B689BB2184603465B0003449A407B6811
:101A00001B680A431A613B685B68062B24D87B6815
:101A10001B68596B3B685A6813469B001344053B8F
:101A20001F2202FA03F3DA437B681B680A405A63F9
:101A30007B681B68596B3B681B689BB218463B6808
:101A40005A6813469B001344053B00FA03F27B6877
:101A50001B680A435A634CE03B685B680C2B24D834
:101A60007B681B68196B3B685A6813469B001344DC
:101A7000233B1F2202FA03F3DA437B681B680A4008
:101A80001A637B681B68196B3B681B689BB218461E
:101A90003B685A6813469B001344233B00FA03F249
:101AA0007B681B680A431A6323E07B681B68D96A5A
:101AB0003B685A6813469B001344413B1F2202FABD
:101AC00003F3DA437B681B680A40DA627B681B68B1
:101AD000D96A3B681B689BB218463B685A68134634
:101AE0009B001344413B00FA03F27B681B680A43E6
:101AF000DA62294BFB607B681B68284A93420FD14E
:101B00003B681B68122B0BD1FB685B6823F4000257
:101B1000FB685A60FB685B6843F48002FB685A60AC
:101B20007B681B681D4A93422BD13B681B681C4A8B
:101B3000934203D03B681B68112B22D1FB685B6882
:101B400023F48002FB685A60FB685B6843F4000280
:101B5000FB685A603B681B68114A934211D1114BD4
:101B60001B68114AA2FB03239A0C13469B001344E3
:101B70005B00BB6002E0BB68013BBB60BB68002B45
:101B8000F9D17B68002283F83C20002318461437E3
:101B9000BD465DF8047B70470023014000200140F2
:101BA000120000100000002083DE1B4380B485B0CB
:101BB00000AF7860794BFB60FB685B6823F44032D0
:101BC000FB685A60FB685A687B685B681A43FB686D
:101BD0005A607B681B685A687B681B6822F48072B5
:101BE0005A607B681B6859687B681B691A027B68AE
:101BF0001B680A435A607B681B685A687B681B68CD
:101C000022F040725A607B681B6859687B689A684A
:101C10007B681B680A435A607B681B689A687B680C
:101C20001B6822F400629A607B681B6899687B6875
:101C3000DA687B681B680A439A607B689B6A584A2B
:101C4000934222D07B681B689A687B681B6822F0ED
:101C500070629A607B681B6899687B689A6A7B6887
:101C60001B680A439A607B681B689A687B681B68DC
:101C700022F040529A607B681B6899687B68DA6A38
:101C80007B681B680A439A600FE07B681B689A6850
:101C90007B681B6822F070629A607B681B689A6898
:101CA0007B681B6822F040529A607B681B689A68C8
:101CB0007B681B6822F002029A607B681B68996847
:101CC0007B681B7E5A007B681B680A439A607B68AE
:101CD00093F82030002B1BD07B681B685A687B6808
:101CE0001B6842F400625A607B681B685A687B6814
:101CF0001B6822F460425A607B681B6859687B68E5
:101D00005B6A013B5A037B681B680A435A6007E021
:101D10007B681B685A687B681B6822F400625A6003
:101D20007B681B68DA6A7B681B6822F47002DA62DF
:101D30007B681B68D96A7B68DB69013B1A057B6895
:101D40001B680A43DA627B681B689A687B681B68B9
:101D500022F400729A607B681B6899687B6893F82C
:101D600030305A027B681B680A439A607B681B68A4
:101D70009A687B681B6822F480629A607B681B68A3
:101D800099687B685B699A027B681B680A439A6062
:101D900000BF1437BD465DF8047B70470023014047
:101DA0000100000F80B485B000AF78607B6803F05D
:101DB0000703FB600C4BDB68BB60BA684FF6FF03A0
:101DC0001340BB60FB681A02BB68134343F0BF6358
:101DD00043F40033BB60044ABB68D36000BF1437D0
:101DE000BD465DF8047B704700ED00E080B400AFB5
:101DF000044BDB681B0A03F007031846BD465DF879
:101E0000047B704700ED00E080B483B000AF034670
:101E10003960FB7197F90730002B0ADB3B68DAB2B7
:101E20000C4997F907301201D2B20B4483F8002312
:101E30000AE03B68DAB20849FB7903F00F03043B80
:101E40001201D2B20B441A7600BF0C37BD465DF8C2
:101E5000047B704700E100E000ED00E080B489B051
:101E600000AFF860B9607A60FB6803F00703FB61BC
:101E7000FB69C3F10703042B28BF0423BB61FB6983
:101E80000433062B02D9FB69033B00E000237B618E
:101E90004FF0FF32BB6902FA03F3DA43BB681A4022
:101EA0007B699A404FF0FF317B6901FA03F3D94314
:101EB0007B680B40134318462437BD465DF8047B0E
:101EC0007047000080B582B000AF78607B68013B4E
:101ED000B3F1807F01D301230FE00A4A7B68013B05
:101EE00053600F214FF0FF30FFF78EFF054B0022AC
:101EF0009A60044B07221A60002318460837BD4633
:101F000080BD00BF10E000E080B582B000AF786017
:101F10007868FFF747FF00BF0837BD4680BD80B532
:101F200086B000AF0346B9607A60FB7300237B6123
:101F3000FFF75CFF78617A68B9687869FFF78EFF10
:101F4000024697F90F3011461846FFF75DFF00BFB4
:101F50001837BD4680BD80B582B000AF7860786824
:101F6000FFF7B0FF034618460837BD4680BD0000A6
:101F700080B489B000AF7860396000237B610023B2
:101F80003B610023BB610023FB6165E10122FB692A
:101F900002FA03F37B613B681B687A6913403B617B
:101FA0003A697B699A4240F054813B685B6803F070
:101FB0000303012B05D03B685B6803F00303022B8E
:101FC00030D17B689B68BB61FB695B00032202FA2E
:101FD00003F3DB43BA691340BB613B68DA68FB6912
:101FE0005B0002FA03F3BA691343BB617B68BA6909
:101FF0009A607B685B68BB610122FB6902FA03F3AC
:10200000DB43BA691340BB613B685B681B0903F0A3
:102010000102FB6902FA03F3BA691343BB617B68EF
:10202000BA695A603B685B6803F00303032B17D05F
:102030007B68DB68BB61FB695B00032202FA03F388
:10204000DB43BA691340BB613B689A68FB695B007C
:1020500002FA03F3BA691343BB617B68BA69DA60B9
:102060003B685B6803F00303022B23D1FB69DA08AA
:102070007B68083253F82230BB61FB6903F0070329
:102080009B000F2202FA03F3DB43BA691340BB61E2
:102090003B681A69FB6903F007039B0002FA03F32C
:1020A000BA691343BB61FB69DA087B680832B96916
:1020B00043F822107B681B68BB61FB695B0003224D
:1020C00002FA03F3DB43BA691340BB613B685B6808
:1020D00003F00302FB695B0002FA03F3BA691343DE
:1020E000BB617B68BA691A603B685B6803F4403384
:1020F000002B00F0AE800023FB605D4B5B6C5C4A04
:1021000043F4804353645A4B5B6C03F48043FB609D
:10211000FB68584AFB699B08023352F82330BB61C5
:10212000FB6903F003039B000F2202FA03F3DB4376
:10213000BA691340BB617B684F4A934225D07B68E4
:102140004E4A93421FD07B684D4A934219D07B6818
:102150004C4A934213D07B684B4A93420DD07B6824
:102160004A4A934207D07B68494A934201D10623E9
:102170000CE007230AE0052308E0042306E003231C
:1021800004E0022302E0012300E00023FA6902F0E8
:10219000030292009340BA691343BB613549FB695E
:1021A0009B080233BA6941F823203A4B9B68BB6114
:1021B0003B69DB43BA691340BB613B685B6803F46E
:1021C0008013002B03D0BA693B691343BB61314ACA
:1021D000BB6993602F4BDB68BB613B69DB43BA692A
:1021E0001340BB613B685B6803F40013002B03D012
:1021F000BA693B691343BB61264ABB69D360254B6F
:102200005B68BB613B69DB43BA691340BB613B68F8
:102210005B6803F40033002B03D0BA693B691343B6
:10222000BB611C4ABB6953601A4B1B68BB613B69AD
:10223000DB43BA691340BB613B685B6803F48033DE
:10224000002B03D0BA693B691343BB61114ABB69D8
:102250001360FB690133FB61FB690F2B7FF696AEC0
:1022600000BF00BF2437BD465DF8047B704700BF48
:1022700000380240003801400000024000040240E3
:1022800000080240000C024000100240001402400E
:1022900000180240003C014080B483B000AF786079
:1022A0000B467B8013467B707B78002B03D07A88AB
:1022B0007B689A6103E07B881A047B689A6100BF9F
:1022C0000C37BD465DF8047B7047000080B584B0D4
:1022D00000AF78607B68002B01D101232BE17B6884
:1022E00093F83D30DBB2002B06D17B68002283F8E7
:1022F0003C207868FEF73CFE7B68242283F83D2072
:102300007B681B681A687B681B6822F001021A60F0
:102310007B681B681A687B681B6842F400421A607D
:102320007B681B681A687B681B6822F400421A608D
:1023300001F0CEF8F8607B685B68814A934207D869
:10234000FB68804A934294BF01230023DBB206E07E
:10235000FB687D4A934294BF01230023DBB2002B2C
:1023600001D00123E7E0FB68784AA2FB03239B0C22
:10237000BB607B681B685B6823F03F017B681B6860
:10238000BA680A435A607B681B681B6A23F03F01E6
:102390007B685B686A4A934202D8BB68013309E0F4
:1023A000BB684FF4967202FB03F3694AA2FB032356
:1023B0009B0901337A6812680B4313627B681B68C0
:1023C000DB6923F44F4222F0FF027B685B685C49C3
:1023D0008B4219D8FB68591E7B685B685B00B1FBB8
:1023E000F3F3591C40F6FC730B40002B0AD0FB683A
:1023F000591E7B685B685B00B1FBF3F30133C3F3E9
:102400000B0351E004234FE07B689B68002B11D144
:10241000FB68581E7B6859680B465B000B44B0FB99
:10242000F3F30133C3F30B03002B0CBF0123002391
:10243000DBB212E0FB68581E7B6859680B469B00B4
:102440000B4499000B44B0FBF3F30133C3F30B03CC
:10245000002B0CBF01230023DBB2002B01D0012392
:1024600022E07B689B68002B0ED1FB68581E7B68BE
:1024700059680B465B000B44B0FBF3F30133C3F325
:102480000B0343F400430FE0FB68581E7B68596858
:102490000B469B000B4499000B44B0FBF3F3013354
:1024A000C3F30B0343F44043796809681343CB61DA
:1024B0007B681B681B6823F0C0017B68DA697B6856
:1024C0001B6A1A437B681B680A431A607B681B6897
:1024D0009B6823F4034323F0FF037A6811697A6849
:1024E000D26811437A6812680B4393607B681B685B
:1024F000DB6823F0FF017B685A697B689B691A439C
:102500007B681B680A43DA607B681B681A687B6813
:102510001B6842F001021A607B6800221A647B6823
:10252000202283F83D207B6800221A637B6800220A
:1025300083F83E20002318461037BD4680BD00BFFB
:10254000A08601007F841E00FF083D0083DE1B4340
:10255000D34D621080B588B002AFF86008461146CE
:102560001A4603467B810B463B811346FB80FFF7EF
:1025700077F97861FB6893F83D30DBB2202B40F0AF
:10258000D9807B690093192301226D49F86800F016
:102590007FFC0346002B01D00223CCE0FB6893F8BC
:1025A0003C30012B01D10223C5E0FB68012283F8F6
:1025B0003C20FB681B681B6803F00103012B07D05C
:1025C000FB681B681A68FB681B6842F001021A600E
:1025D000FB681B681A68FB681B6822F400621A60BB
:1025E000FB68212283F83D20FB68402283F83E20CF
:1025F000FB6800221A64FB683A6A5A62FB68BA8C6C
:102600005A85FB685B8D9AB2FB681A85FB684D4A58
:10261000DA62F8883A8979897B690193BB6A009309
:102620000346F86800F0B6FA0346002B52D00123A7
:1026300081E07A69B96AF86800F000FD0346002B72
:102640000DD0FB681B6C042B07D1FB681B681A6854
:10265000FB681B6842F400721A6001236BE0FB68A0
:102660005B6A1A78FB681B681A61FB685B6A5A1C14
:10267000FB685A62FB681B8D013B9AB2FB681A85A6
:10268000FB685B8D9BB2013B9AB2FB685A85FB6885
:102690001B685B6903F00403042B1BD1FB681B8DD3
:1026A000002B17D0FB685B6A1A78FB681B681A61FD
:1026B000FB685B6A5A1CFB685A62FB681B8D013B16
:1026C0009AB2FB681A85FB685B8D9BB2013B9AB29C
:1026D000FB685A85FB681B8D002BAAD17A69B96A01
:1026E000F86800F0ECFC0346002B0DD0FB681B6C77
:1026F000042B07D1FB681B681A68FB681B6842F44F
:1027000000721A60012316E0FB681B681A68FB68F8
:102710001B6842F400721A60FB68202283F83D2097
:10272000FB68002283F83E20FB68002283F83C20EF
:10273000002300E0022318461837BD4680BD00BFC5
:10274000020010000000FFFF80B58CB002AFF860FF
:10275000084611461A4603467B810B463B811346C9
:10276000FB80FFF77DF87862FB6893F83D30DBB2C1
:10277000202B40F008827B6A0093192301227B49B9
:10278000F86800F085FB0346002B01D00223FBE133
:10279000FB6893F83C30012B01D10223F4E1FB6884
:1027A000012283F83C20FB681B681B6803F00103CF
:1027B000012B07D0FB681B681A68FB681B6842F096
:1027C00001021A60FB681B681A68FB681B6822F428
:1027D00000621A60FB68222283F83D20FB684022D9
:1027E00083F83E20FB6800221A64FB683A6B5A6249
:1027F000FB68BA8E5A85FB685B8D9AB2FB681A85B6
:10280000FB685B4ADA62F8883A8979897B6A0193C6
:10281000BB6B00930346F86800F052FA0346002BA6
:1028200001D00123B0E1FB681B8D002B13D10023E5
:102830003B62FB681B685B693B62FB681B689B69CA
:102840003B623B6AFB681B681A68FB681B6842F4C2
:1028500000721A6084E1FB681B8D012B1BD1FB68A1
:102860001B681A68FB681B6822F480621A600023E8
:10287000FB61FB681B685B69FB61FB681B689B690C
:10288000FB61FB69FB681B681A68FB681B6842F404
:1028900000721A6064E1FB681B8D022B1BD1FB6880
:1028A0001B681A68FB681B6822F480621A60FB6868
:1028B0001B681A68FB681B6842F400621A600023F8
:1028C000BB61FB681B685B69BB61FB681B689B693C
:1028D000BB61BB6944E100237B61FB681B685B69EA
:1028E0007B61FB681B689B697B617B6938E1FB68E6
:1028F0001B8D032B00F2F180FB681B8D012B23D174
:102900007A6AB96BF86800F01BFC0346002B01D013
:10291000012339E1FB681B681A69FB685B6AD2B264
:102920001A70FB685B6A5A1CFB685A62FB681B8D55
:10293000013B9AB2FB681A85FB685B8D9BB2013B39
:102940009AB2FB685A850BE1FB681B8D022B4ED1B6
:102950007B6A0093BB6B00220649F86800F098FA86
:102960000346002B08D001230EE100BF0200100037
:102970000000FFFF04000100FB681B681A68FB6889
:102980001B6842F400721A60FB681B681A69FB68D6
:102990005B6AD2B21A70FB685B6A5A1CFB685A62A7
:1029A000FB681B8D013B9AB2FB681A85FB685B8D47
:1029B0009BB2013B9AB2FB685A85FB681B681A6997
:1029C000FB685B6AD2B21A70FB685B6A5A1CFB68D0
:1029D0005A62FB681B8D013B9AB2FB681A85FB6843
:1029E0005B8D9BB2013B9AB2FB685A85B8E07B6A6B
:1029F0000093BB6B00226649F86800F049FA034671
:102A0000002B01D00123BFE0FB681B681A68FB683C
:102A10001B6822F480621A60FB681B681A69FB68F5
:102A20005B6AD2B21A70FB685B6A5A1CFB685A6216
:102A3000FB681B8D013B9AB2FB681A85FB685B8DB6
:102A40009BB2013B9AB2FB685A857B6A0093BB6BD1
:102A500000224F49F86800F01BFA0346002B01D012
:102A6000012391E0FB681B681A68FB681B6842F44D
:102A700000721A60FB681B681A69FB685B6AD2B255
:102A80001A70FB685B6A5A1CFB685A62FB681B8DF4
:102A9000013B9AB2FB681A85FB685B8D9BB2013BD8
:102AA0009AB2FB685A85FB681B681A69FB685B6A07
:102AB000D2B21A70FB685B6A5A1CFB685A62FB68E8
:102AC0001B8D013B9AB2FB681A85FB685B8D9BB23C
:102AD000013B9AB2FB685A8542E07A6AB96BF868A2
:102AE00000F02EFB0346002B01D001234CE0FB68D5
:102AF0001B681A69FB685B6AD2B21A70FB685B6A72
:102B00005A1CFB685A62FB681B8D013B9AB2FB683A
:102B10001A85FB685B8D9BB2013B9AB2FB685A85B4
:102B2000FB681B685B6903F00403042B18D1FB6886
:102B30001B681A69FB685B6AD2B21A70FB685B6A31
:102B40005A1CFB685A62FB681B8D013B9AB2FB68FA
:102B50001A85FB685B8D9BB2013B9AB2FB685A8574
:102B6000FB681B8D002B7FF4C2AEFB68202283F82C
:102B70003D20FB68002283F83E20FB68002283F89A
:102B80003C20002300E0022318462837BD4680BDC4
:102B90000400010080B588B002AFF8600846114615
:102BA0001A4603467B810B463B811346FB80FB683C
:102BB0001B681A68FB681B6842F480721A607B6AA3
:102BC00000933B6A00224FF00111F86800F060F9B1
:102BD0000346002B0DD0FB681B681B6803F4807351
:102BE000B3F5807F03D1FB684FF400721A640323AE
:102BF0005FE07B89DBB21A46FB681B6802F0FE02CD
:102C00001A617B6A3A6A2D49F86800F098F9034620
:102C1000002B01D001234CE000237B61FB681B6883
:102C20005B697B61FB681B689B697B617B697A6A76
:102C3000396AF86800F002FA0346002B0DD0FB68F1
:102C40001B6C042B07D1FB681B681A68FB681B68A8
:102C500042F400721A6001232BE0FB88012B05D19E
:102C60003B89DAB2FB681B681A6121E03B891B0AC9
:102C70009BB2DAB2FB681B681A617A6A396AF86833
:102C800000F0DCF90346002B0DD0FB681B6C042B15
:102C900007D1FB681B681A68FB681B6842F4007266
:102CA0001A60012305E03B89DAB2FB681B681A61F0
:102CB000002318461837BD4680BD00BF0200010042
:102CC00080B588B002AFF860084611461A46034640
:102CD0007B810B463B811346FB80FB681B681A68AF
:102CE000FB681B6842F480621A60FB681B681A6804
:102CF000FB681B6842F480721A607B6A00933B6A2F
:102D000000224FF00111F86800F0C2F80346002BD2
:102D10000DD0FB681B681B6803F48073B3F5807FDC
:102D200003D1FB684FF400721A640323AAE07B8985
:102D3000DBB21A46FB681B6802F0FE021A617B6A6E
:102D40003A6A5249F86800F0FAF80346002B01D0BD
:102D5000012397E000237B61FB681B685B697B6153
:102D6000FB681B689B697B617B697A6A396AF868D2
:102D700000F064F90346002B0DD0FB681B6C042B9C
:102D800007D1FB681B681A68FB681B6842F4007275
:102D90001A60012376E0FB88012B05D13B89DAB26A
:102DA000FB681B681A6121E03B891B0A9BB2DAB2FF
:102DB000FB681B681A617A6A396AF86800F03EF9A4
:102DC0000346002B0DD0FB681B6C042B07D1FB685E
:102DD0001B681A68FB681B6842F400721A600123C2
:102DE00050E03B89DAB2FB681B681A617A6A396A7B
:102DF000F86800F023F90346002B0DD0FB681B6C2C
:102E0000042B07D1FB681B681A68FB681B6842F437
:102E100000721A60012335E0FB681B681A68FB68C2
:102E20001B6842F480721A607B6A00933B6A00223E
:102E30004FF00111F86800F02BF80346002B0DD07D
:102E4000FB681B681B6803F48073B3F5807F03D1B4
:102E5000FB684FF400721A64032313E07B89DBB232
:102E600043F00103DAB2FB681B681A617B6A3A6AB5
:102E70000649F86800F063F80346002B01D00123EF
:102E800000E0002318461837BD4680BD020001004F
:102E900080B584B000AFF860B9603B601346FB7149
:102EA00025E03B68B3F1FF3F21D0FEF7D9FC024695
:102EB000BB69D31A3A689A4202D33B68002B16D1F9
:102EC000FB6800221A63FB68202283F83D20FB6820
:102ED000002283F83E20FB681B6C43F02002FB6855
:102EE0001A64FB68002283F83C20012323E0BB68BE
:102EF0001B0CDBB2012B0DD1FB681B685B69DA434D
:102F0000BB6813409BB2002B0CBF01230023DBB234
:102F10001A460CE0FB681B689B69DA43BB681340E8
:102F20009BB2002B0CBF01230023DBB21A46FB79B6
:102F30009A42B6D0002318461037BD4680BD80B5F2
:102F400084B000AFF860B9607A603B6051E0FB6824
:102F50001B685B6903F48063B3F5806F23D1FB6862
:102F60001B681A68FB681B6842F400721A60FB68F1
:102F70001B686FF480625A61FB6800221A63FB6869
:102F8000202283F83D20FB68002283F83E20FB6866
:102F90001B6C43F00402FB681A64FB68002283F890
:102FA0003C20012346E07B68B3F1FF3F21D0FEF7D0
:102FB00057FC02463B68D31A7A689A4202D37B6870
:102FC000002B16D1FB6800221A63FB68202283F8CD
:102FD0003D20FB68002283F83E20FB681B6C43F019
:102FE0002002FB681A64FB68002283F83C2001235E
:102FF00020E0BB681B0CDBB2012B0CD1FB681B680B
:103000005B69DA43BB6813409BB2002B14BF0123FA
:103010000023DBB20BE0FB681B689B69DA43BB68EB
:1030200013409BB2002B14BF01230023DBB2002B03
:103030008DD1002318461037BD4680BD80B584B0C1
:1030400000AFF860B9607A602DE0F86800F0CEF863
:103050000346002B01D001232DE0BB68B3F1FF3FF5
:1030600021D0FEF7FDFB02467B68D31ABA689A426C
:1030700002D3BB68002B16D1FB6800221A63FB68E1
:10308000202283F83D20FB68002283F83E20FB6865
:103090001B6C43F02002FB681A64FB68002283F873
:1030A0003C20012307E0FB681B685B6903F0800399
:1030B000802BCAD1002318461037BD4680BD80B58D
:1030C00084B000AFF860B9607A602DE0F86800F075
:1030D0008DF80346002B01D001232DE0BB68B3F12E
:1030E000FF3F21D0FEF7BCFB02467B68D31ABA68CB
:1030F0009A4202D3BB68002B16D1FB6800221A63E8
:10310000FB68202283F83D20FB68002283F83E20E4
:10311000FB681B6C43F02002FB681A64FB6800220A
:1031200083F83C20012307E0FB681B685B6903F020
:103130000403042BCAD1002318461037BD4680BDB6
:1031400080B584B000AFF860B9607A6042E0FB6897
:103150001B685B6903F01003102B19D1FB681B6817
:103160006FF010025A61FB6800221A63FB6820228C
:1031700083F83D20FB68002283F83E20FB681A6C30
:10318000FB681A64FB68002283F83C20012329E0D5
:10319000FEF766FB02467B68D31ABA689A4202D3EE
:1031A000BB68002B16D1FB6800221A63FB68202243
:1031B00083F83D20FB68002283F83E20FB681B6CEF
:1031C00043F02002FB681A64FB68002283F83C206D
:1031D000012307E0FB681B685B6903F04003402B99
:1031E000B5D1002318461037BD4680BD80B483B0EA
:1031F00000AF78607B681B685B6903F48063B3F59C
:10320000806F1BD17B681B686FF480625A617B689A
:1032100000221A637B68202283F83D207B6800220D
:1032200083F83E207B681B6C43F004027B681A64C1
:103230007B68002283F83C20012300E0002318462D
:103240000C37BD465DF8047B7047000080B582B046
:1032500000AF00237B6000233B60204B1B6C1F4AA8
:1032600043F0805313641D4B1B6C03F080533B6091
:103270003B681B4B01221A60FEF7F2FA786009E006
:10328000FEF7EEFA02467B68D31AB3F57A7F01D9CE
:1032900003231FE0134B5B6803F48033B3F5803FD7
:1032A000EED1114B01221A60FEF7DAFA786009E0DC
:1032B000FEF7D6FA02467B68D31AB3F57A7F01D9B6
:1032C000032307E0074B5B6803F40033B3F5003FCB
:1032D000EED1002318460837BD4680BD00380240B5
:1032E00040000E420070004044000E4280B584B0A1
:1032F00000AF786039607B68002B01D10123CCE0FE
:10330000684B1B6803F00F033A689A420CD9654B6F
:103310003A68D2B21A70634B1B6803F00F033A6825
:103320009A4201D00123B8E07B681B6803F00203D6
:10333000002B20D07B681B6803F00403002B05D012
:10334000594B9B68584A43F4E05393607B681B6871
:1033500003F00803002B05D0534B9B68524A43F4FB
:1033600060439360504B9B6823F0F0027B689B683E
:103370004D4913438B607B681B6803F00103002BEE
:1033800044D07B685B68012B07D1474B1B6803F473
:103390000033002B19D101237FE07B685B68022B8F
:1033A00003D07B685B68032B07D13F4B1B6803F09E
:1033B0000073002B09D101236FE03B4B1B6803F026
:1033C0000203002B01D1012367E0374B9B6823F0F8
:1033D00003027B685B68344913438B60FEF740FA55
:1033E000F8600AE0FEF73CFA0246FB68D31A41F2A5
:1033F0008832934201D903234FE02B4B9B6803F0A3
:103400000C027B685B689B009A42EBD1254B1B68E2
:1034100003F00F033A689A420CD2224B3A68D2B2B8
:103420001A70204B1B6803F00F033A689A4201D0D0
:10343000012332E07B681B6803F00403002B08D0F3
:10344000194B9B6823F4E0527B68DB6816491343F1
:103450008B607B681B6803F00803002B09D0124BBC
:103460009B6823F460427B681B69DB000E491343B1
:103470008B6000F041F802460B4B9B681B0903F080
:103480000F030A49CB5C22FA03F3094A1360094B84
:103490001B681846FEF7A0F9002318461037BD46F2
:1034A00080BD00BF003C02400038024000480008D8
:1034B000000000200C00002080B400AF034B1B680C
:1034C0001846BD465DF8047B704700BF0000002031
:1034D00080B500AFFFF7F0FF0246054B9B689B0AE3
:1034E00003F007030349CB5C22FA03F3184680BDBF
:1034F00000380240104800082DE9B04FA6B000AFD8
:103500000023C7F88C300023C7F894300023C7F895
:1035100088300023C7F884300023C7F89030C84BA8
:103520009B6803F00C030C2B00F27E8101A252F881
:1035300023F000BF69350008293800082938000841
:103540002938000871350008293800082938000892
:10355000293800087935000829380008293800087A
:1035600029380008E3360008B64BC7F890305FE111
:10357000B54BC7F890305BE1B14B5B6803F03F039C
:10358000C7F88C30AE4B5B6803F48003002B31D05E
:10359000AB4B5B689B090022BB66FA66BB6EC3F34C
:1035A00008033B6600237B66A74BD7E918452A46EC
:1035B00003FB02F20023214601FB03F31344A24A5A
:1035C0002146A1FB0212FA670A46BA67FA6F134452
:1035D000FB67D7F88C300022BB65FA65D7E9162364
:1035E000D7E91E01FCF764FE02460B461346C7F8F6
:1035F000943064E0924B5B689B0900223B657A65DE
:103600003B6DC3F30803BB640023FB64D7E9124599
:1036100022462B464FF000004FF00001590141EACD
:10362000D261500102460B462146511A39612946A2
:1036300063EB01037B614FF000024FF00003D7E919
:1036400004AB59468B01514643EA916351468A01C6
:103650005146B2EB0108594663EB01094FF00002F5
:103660004FF000034FEAC90343EA58734FEAC80218
:1036700090469946234618EB0303BB602B4649EB63
:103680000303FB604FF000024FF00003D7E902454F
:1036900029468B02214643EA915321468A0210466D
:1036A0001946D7F88C3000223B647A64D7E910239E
:1036B000FCF7FEFD02460B461346C7F89430604BFC
:1036C0005B681B0C03F0030301335B00C7F8883011
:1036D000D7F89420D7F88830B2FBF3F3C7F89030CE
:1036E000A6E0574B5B6803F03F03C7F88C30544BA0
:1036F0005B6803F48003002B2AD0514B5B689B0965
:103700000022BB63FA63BB6BC3F3080000214E4B7E
:1037100003FB01F2002300FB03F313444A4AA0FB1E
:1037200002127A670A463A677A6F13447B67D7F8C2
:103730008C3000223B637A63D7E90C23D7E91C0164
:10374000FCF7B6FD02460B461346C7F894305BE023
:103750003B4B5B689B090022BB62FA62BB6AC3F306
:1037600008033B6200237B62D7E9088942464B4647
:103770004FF000004FF00001590141EAD2615001C1
:1037800002460B464146B2EB010A494663EB010B88
:103790004FF000024FF000034FEA8B1343EA9A63A5
:1037A0004FEA8A12B2EB0A0463EB0B054FF00002FA
:1037B0004FF00003EB0043EA5473E20014461D4649
:1037C0004346E3183B604B4645EB03037B604FF0F9
:1037D00000024FF00003D7E9004529468B0221463D
:1037E00043EA915321468A0210461946D7F88C3095
:1037F0000022BB61FA61D7E90623FCF759FD0246B6
:103800000B461346C7F894300D4B5B681B0F03F053
:103810000703C7F88430D7F89420D7F88430B2FB78
:10382000F3F3C7F8903003E0064BC7F8903000BFC1
:10383000D7F8903018469837BD46BDE8B08F00BF26
:10384000003802400024F40000366E0180B586B0D6
:1038500000AF78607B68002B01D101238DE27B688B
:103860001B6803F00103002B00F08380944B9B68DE
:1038700003F00C03042B19D0914B9B6803F00C034D
:10388000082B06D18E4B5B6803F48003B3F5800FE1
:103890000CD08B4B9B6803F00C030C2B12D1884B84
:1038A0005B6803F48003B3F5800F0BD1844B1B6876
:1038B00003F40033002B5BD07B685B68002B57D18F
:1038C00001235AE27B685B68B3F5803F06D17C4BED
:1038D0001B687B4A43F4803313601DE07B685B68A0
:1038E000B3F5A02F0CD1764B1B68754A43F48023A7
:1038F0001360734B1B68724A43F4803313600BE010
:103900006F4B1B686E4A23F4803313606C4B1B684B
:103910006B4A23F4802313607B685B68002B13D011
:10392000FDF79EFF386108E0FDF79AFF02463B690C
:10393000D31A642B01D903231FE2614B1B6803F4E4
:103940000033002BF0D014E0FDF78AFF386108E067
:10395000FDF786FF02463B69D31A642B01D9032386
:103960000BE2574B1B6803F40033002BF0D100E04F
:1039700000BF7B681B6803F00203002B6FD0504B25
:103980009B6803F00C03002B17D04D4B9B6803F092
:103990000C03082B05D14A4B5B6803F48003002B12
:1039A0000BD0474B9B6803F00C030C2B1CD1444BF2
:1039B0005B6803F48003002B16D1414B1B6803F0B6
:1039C0000203002B05D07B68DB68012B01D00123AB
:1039D000D3E13B4B1B6823F0F8027B681B69DB00DB
:1039E000374913430B603AE07B68DB68002B20D03B
:1039F000344B01221A60FDF733FF386108E0FDF710
:103A00002FFF02463B69D31A022B01D90323B4E1ED
:103A10002B4B1B6803F00203002BF0D0284B1B68D4
:103A200023F0F8027B681B69DB00254913430B6018
:103A300015E0244B00221A60FDF712FF386108E000
:103A4000FDF70EFF02463B69D31A022B01D903236F
:103A500093E11B4B1B6803F00203002BF0D17B6842
:103A60001B6803F00803002B36D07B685B69002BD2
:103A700016D0154B01221A60FDF7F2FE386108E0FE
:103A8000FDF7EEFE02463B69D31A022B01D9032350
:103A900073E10B4B5B6F03F00203002BF0D01BE0D4
:103AA000094B00221A60FDF7DBFE38610EE0FDF7DE
:103AB000D7FE02463B69D31A022B07D903235CE1E8
:103AC0000038024000004742800E47428A4B5B6F3D
:103AD00003F00203002BEAD17B681B6803F00403A8
:103AE000002B00F097800023FB75834B1B6C03F0C9
:103AF0008053002B0FD10023BB607F4B1B6C7E4A91
:103B000043F0805313647C4B1B6C03F08053BB6009
:103B1000BB680123FB75794B1B6803F48073002B92
:103B200018D1764B1B68754A43F480731360FDF718
:103B300097FE386108E0FDF793FE02463B69D31A11
:103B4000022B01D9032318E16C4B1B6803F480732B
:103B5000002BF0D07B689B68012B06D1664B1B6F56
:103B6000654A43F0010313671CE07B689B68052BE3
:103B70000CD1614B1B6F604A43F0040313675E4B2B
:103B80001B6F5D4A43F0010313670BE05A4B1B6F39
:103B9000594A23F001031367574B1B6F564A23F012
:103BA000040313677B689B68002B15D0FDF758FE54
:103BB00038610AE0FDF754FE02463B69D31A41F230
:103BC0008832934201D90323D7E04B4B1B6F03F09C
:103BD0000203002BEED014E0FDF742FE38610AE04C
:103BE000FDF73EFE02463B69D31A41F2883293420A
:103BF00001D90323C1E0404B1B6F03F00203002BEC
:103C0000EED1FB7D012B05D13B4B1B6C3A4A23F0D7
:103C1000805313647B689B69002B00F0AD80364BAA
:103C20009B6803F00C03082B60D07B689B69022B18
:103C300045D1334B00221A60FDF712FE386108E0CF
:103C4000FDF70EFE02463B69D31A022B01D903236E
:103C500093E0294B1B6803F00073002BF0D17B68C5
:103C6000DA697B681B6A1A437B685B6A9B011A43AB
:103C70007B689B6A5B08013B1B041A437B68DB6A19
:103C80001B061A437B681B6B1B071B4913434B60C6
:103C90001B4B01221A60FDF7E3FD386108E0FDF7D8
:103CA000DFFD02463B69D31A022B01D9032364E0EE
:103CB000114B1B6803F00073002BF0D05CE0104B3D
:103CC00000221A60FDF7CCFD386108E0FDF7C8FD61
:103CD00002463B69D31A022B01D903234DE0064B60
:103CE0001B6803F00073002BF0D145E07B689B69F3
:103CF000012B07D1012340E0003802400070004052
:103D0000600047421F4B5B68FB607B689B69012B2F
:103D100030D0FB6803F480027B68DB699A4229D1CA
:103D2000FB6803F03F027B681B6A9A4222D1FA6863
:103D300047F6C07313407A68526A9201934219D1D0
:103D4000FB6803F440327B689B6A5B08013B1B0401
:103D50009A420FD1FB6803F070627B68DB6A1B0636
:103D60009A4207D1FB6803F0E0427B681B6B1B079C
:103D70009A4201D0012300E0002318461837BD46BF
:103D800080BD00BF0038024080B582B000AF7860CF
:103D90007B68002B01D101237BE07B685B6A002BF1
:103DA00008D17B685B68B3F5827F09D07B6800220D
:103DB000DA6105E07B6800221A617B6800225A61A3
:103DC0007B6800229A627B6893F85130DBB2002B4B
:103DD00006D17B68002283F850207868FDF7BCF993
:103DE0007B68022283F851207B681B681A687B6815
:103DF0001B6822F040021A607B685B6803F48272E1
:103E00007B689B6803F404431A437B68DB6803F414
:103E100000631A437B681B6903F002031A437B6843
:103E20005B6903F001031A437B689B6903F4007329
:103E30001A437B68DB6903F038031A437B681B6A0B
:103E400003F0800342EA03017B689B6A03F400529B
:103E50007B681B680A431A607B689B691B0C03F034
:103E600004017B685B6A03F010027B681B680A43ED
:103E70005A607B681B68DA697B681B6822F4006201
:103E8000DA617B6800225A657B68012283F8512041
:103E9000002318460837BD4680BD0000014B186856
:103EA000704700BF1400002070B50D4D0D4C641B11
:103EB000A4100026A64209D10B4D0C4C00F08EFC3C
:103EC000641BA4100026A64205D170BD55F8043B22
:103ED00098470136EEE755F8043B98470136F2E77C
:103EE000C04F0008C04F0008C04F0008C44F000872
:103EF0000A44914200F1FF3300D1704710B511F828
:103F0000014B03F8014F9142F9D110BD884210B521
:103F100001EB020402D98442234607D8431EA14282
:103F200008D011F8012B03F8012FF8E702440146ED
:103F30008A4200D110BD13F8014D02F8014DF7E798
:103F400002440346934200D1704703F8011BF9E78E
:103F50000EB400B59CB01DAB029006906FF000410E
:103F6000094807910491094953F8042B0591006809
:103F7000019302A900F068F8029B00221A701CB09D
:103F80005DF804EB03B07047140000200802FFFF47
:103F90002DE9F0478E689E4282460C4690461F46A9
:103FA00038D88A8912F4906F32D025680969A5EB58
:103FB0000109656905EB450505EBD57501334B44F2
:103FC0006D109D4238BF1D46530531D5294600F07E
:103FD0003BFB064650B90C23CAF80030A38943F0D6
:103FE0004003A3814FF0FF30BDE8F08721694A46C6
:103FF000FFF77EFFA38923F4906343F08003A3813E
:10400000266165614E44A5EB09052660A5603E4624
:10401000BE4200D93E46206832464146FFF776FF51
:10402000A3689B1BA3602368334423600020DBE765
:104030002A4600F07DFB06460028E1D12169504662
:1040400000F096FAC7E700002DE9F04F98468B89FB
:104050001B069DB007460D4614460ED50B6963B985
:10406000402100F0F1FA2860286120B90C233B6060
:104070004FF0FF30D1E040236B61002309932023F0
:104080008DF82930CDF80C803023DFF8A8818DF829
:104090002A304FF0010923469A4613F8012B0AB142
:1040A000252AF9D1BAEB040B0BD05B4622462946F0
:1040B0003846FFF76DFF013000F0AA80099A5A4494
:1040C00009929AF80030002B00F0A28000234FF0F4
:1040D000FF32CDE905230AF1010A049307938DF815
:1040E00053301A935446052214F8011B5148FCF72B
:1040F0008FF8049AD8B9D00644BF20238DF85330E6
:10410000110744BF2B238DF853309AF800302A2B27
:1041100015D0079A544600204FF00A0C214611F89A
:10412000013B303B092B4ED9B0B1079214E0A0EB14
:10413000080309FA03F313430493A246D2E7039B4F
:10414000191D1B680391002BBBBF5B4242F00202AA
:1041500007930793B8BF049223782E2B0CD1637872
:104160002A2B35D1039B1A1D1B680392002BB8BF65
:104170004FF0FF3302340593DFF8C8A02178032203
:104180005046FCF745F840B14023A0EB0A0003FA83
:1041900000F0049B03430134049314F8011B2648E8
:1041A0008DF828100622FCF733F8002838D0234B6E
:1041B0001BBB039B073323F0070308330393099BBF
:1041C0003344099367E70CFB02320C460120A5E754
:1041D00000230134059319464FF00A0C204610F8CD
:1041E000012B303A092A03D9002BC5D00591C3E72A
:1041F0000CFB012104460123F0E703AB00932A46A0
:104200000F4B04A93846AFF30080421C0646D6D1B6
:10421000AB895B063FF52CAF09981DB0BDE8F08F68
:1042200003AB00932A46064B04A9384600F07AF8FF
:10423000EBE700BF844F00088E4F0008000000002D
:10424000913F00088A4F00082DE9F047164699462D
:104250008A680B69DDF820809342B8BF134633604B
:1042600091F8432007460C460AB1013333602368B6
:10427000990642BF336802333360256815F006059E
:1042800006D104F1190AE36832689B1AAB4226DCB6
:1042900094F84320131E226818BF012392062BD4E2
:1042A00004F1430249463846C04701301ED0236816
:1042B000E568326803F00603042B08BFAD1AA36853
:1042C00022690CBF25EAE57500259342C4BF9B1AFD
:1042D000ED1800261A34B5421AD1002008E0012357
:1042E000524649463846C047013003D14FF0FF30AF
:1042F000BDE8F0870135C6E7E1185A1C302081F887
:104300004300224494F8451082F843100233C7E773
:104310000123224649463846C0470130E6D00136DF
:10432000D9E700002DE9FF470F7E0C9D782F9146BD
:1043300080460C469A4601F1430207D8622F0AD8FC
:10434000002F00F0D880582F00F0A38004F1420520
:1043500084F842703AE0A7F16303152BF6D801A167
:1043600051F823F0BD430008D14300084D43000835
:104370004D4300084D4300084D430008D143000859
:104380004D4300084D4300084D4300084D430008CD
:10439000DD44000801440008BF4400084D43000804
:1043A0004D430008FF4400084D4300080144000845
:1043B0004D4300084D430008C74400082B681A1DF0
:1043C0001B682A6004F1420584F842300123A3E00F
:1043D00020682968060601F104030AD50E682B60DF
:1043E000002E03DA2D23764284F843305E480A23F8
:1043F00019E00E682B6010F0400F18BF36B2EFE7DF
:104400002B682068191D2960010601D51E6802E08D
:104410004606FBD51E8854486F2F0CBF08230A237D
:10442000002184F843106568A560002DA2BF2168B3
:1044300021F0040121600EB9002D4DD01546B6FBC8
:10444000F3F103FB1167C75D05F8017D3746BB42F9
:104450000E46F4D9082B0BD12368DE0708D5236953
:1044600061689942DEBF302305F8013C05F1FF3554
:10447000521B2261CDF800A04B4603AA21464046BC
:10448000FFF7E2FE01304CD14FF0FF3004B0BDE841
:10449000F087354881F845702968236851F8046B26
:1044A00029601D0614D5DF0744BF43F020032360B5
:1044B0001EB9236823F0200323601023B0E723688C
:1044C00043F0200323607823284884F84530E3E74D
:1044D000590648BFB6B2E6E71546BBE72B68266823
:1044E0006169181D286035061B6801D5196002E056
:1044F0007006FBD51980002323611546BAE72B68A7
:104500001A1D2A601D68626800212846FBF780FE9C
:1045100008B1401B606063682361002384F8433066
:10452000A8E723692A4649464046D0470130ABD028
:1045300023689B0713D4E068039B9842B8BF1846D2
:10454000A4E70123324649464046D04701309BD07C
:104550000135E36803995B1AAB42F2DCEBE7002517
:1045600004F11906F5E700BF954F0008A64F0008B3
:1045700037B5002944D051F8043C0190002BA1F13B
:104580000404B8BFE41800F013F91E4A0198136838
:1045900033B96360146003B0BDE8304000F00EB979
:1045A000A34208D9256861198B4201BF19685B686D
:1045B00049192160EDE71A465B680BB1A342FAD9AD
:1045C00011685518A5420BD1246821445418A34200
:1045D0001160E0D11C685B68536021441160DAE728
:1045E00002D90C230360D6E7256861198B4204BF0A
:1045F00019685B68636004BF491921605460CAE7A9
:1046000003B030BD4004002070B50E4E0C4631683A
:10461000054611B900F0BCF830602146284600F08C
:10462000B7F8431C0AD0C41C24F00304A04207D0EE
:10463000211A284600F0ACF8013001D14FF0FF34C8
:10464000204670BD440400202DE9F041CD1C25F02A
:10465000030508350C2D38BF0C25002D074601DB5E
:10466000A94205D90C233B6000263046BDE8F08105
:104670002E4E00F09DF833681C4634BB2946384660
:10468000FFF7C2FF431C04464DD134682646002E76
:1046900040D123683146384604EB030800F078F82F
:1046A00080453AD1216803356D1A25F00305083598
:1046B0000C2D38BF0C2529463846FFF7A5FF0130E1
:1046C0002BD023682B4423600EE02268521B1ED49B
:1046D0000B2A16D96119A342256018BF5960636877
:1046E00008BF316062514B60384604F10B0600F0A0
:1046F00065F826F00706231DF21AB6D09B1BA350BF
:10470000B3E76268A3420CBF32605A60ECE723460D
:104710006468B2E734467668B9E70C233B603846F4
:1047200000F04CF8A1E72560DEE700BF4004002060
:104730002DE9F041804614460E4621B9BDE8F0410E
:104740001146FFF781BF2AB9FFF712FF2546284619
:10475000BDE8F08100F038F88442074602D8B4EB97
:10476000500F12D821464046FFF76EFF054600283D
:10477000EDD0BC422246314628BF3A46FFF7B8FB8F
:1047800031464046FFF7F4FEE1E73546DFE700003B
:1047900038B5064D0023044608462B60FCF74EFD55
:1047A000431C02D12B6803B1236038BD48040020AC
:1047B000014800F011B800BF4C040020014800F08F
:1047C0000CB800BF4C04002051F8043C181F002B0B
:1047D000BCBF0B58C018704770477047F8B500BF92
:1047E000F8BC08BC9E467047F8B500BFF8BC08BCD2
:0447F0009E4670472A
:1047F40048656C6C6F7300002564000000000000C5
:10480400000000000102030406070809000000007C
:10481400010203040000000000000000000000008A
:104824000000000000000000001000100010001044
:1048340000100010000000100000000000280028F4
:10484400002800000000000000000000000000003C
:1048540000240024007C00240048007C0048004818
:1048640000000000003800540050003800140054C8
:10487400005400380010000000200054005800309C
:104884000028005400140008000000000010002854
:1048940000280010003400480048003400000000E4
:1048A40000100010001000000000000000000000D4
:1048B400000000000008001000200020002000205C
:1048C400002000200010000800200010000800084C
:1048D400000800080008000800100020001000383C
:1048E400001000280000000000000000000000008C
:1048F4000000000000100010007C001000100000F8
:1049040000000000000000000000000000000000A3
:104914000000001000100010000000000000000063
:10492400000000380000000000000000000000004B
:104934000000000000000000000000100000000063
:1049440000080008001000100010001000200020D3
:1049540000000000003800440044005400440044B7
:104964000044003800000000001000300050001027
:104974000010001000100010000000000038004477
:1049840000440004000800100020007C0000000027
:1049940000380044000400180004000400440038F7
:1049A4000000000000080018002800280048007CCF
:1049B4000008000800000000007C0040004000786F
:1049C40000040004004400380000000000380044E3
:1049D4000040007800440044004400380000000017
:1049E400007C0004000800100010002000200020BB
:1049F4000000000000380044004400380044004433
:104A04000044003800000000003800440044004422
:104A1400003C0004004400380000000000000000D6
:104A24000010000000000000000000100000000062
:104A34000000000000000010000000000000001052
:104A44000010001000000000000C00300040003096
:104A5400000C000000000000000000000000007CCA
:104A64000000007C000000000000000000000000C6
:104A7400006000180004001800600000000000003E
:104A8400003800440004000800100010000000106A
:104A94000000000000380044004C0054005C00405A
:104AA4000040003800000000001000280028002802
:104AB4000028007C0044004400000000007800440A
:104AC40000440078004400440044007800000000E2
:104AD40000380044004000400040004000440038DA
:104AE40000000000007000480044004400440044FA
:104AF4000048007000000000007C00400040007C82
:104B0400004000400040007C00000000007C0040A9
:104B140000400078004000400040004000000000D9
:104B24000038004400400040005C00440044003869
:104B340000000000004400440044007C00440044A1
:104B44000044004400000000003800100010001071
:104B540000100010001000380000000000040004E1
:104B640000040004000400040044003800000000B5
:104B740000440048005000600050004800480044D1
:104B840000000000004000400040004000400040A1
:104B94000040007C000000000044006C006C0054E5
:104BA4000044004400440044000000000044006449
:104BB400006400540054004C004C00440000000009
:104BC40000380044004400440044004400440038D9
:104BD40000000000007800440044004400780040D5
:104BE400004000400000000000380044004400443D
:104BF40000440044005400380004000000780044DD
:104C040000440044007800480048004400000000CC
:104C1400003800440040003000080004004400381C
:104C240000000000007C00100010001000100010B4
:104C34000010001000000000004400440044004440
:104C440000440044004400380000000000440044D4
:104C54000044002800280028001000100000000074
:104C640000440044005400540054006C0028002800
:104C74000000000000440028002800100010002854
:104C840000280044000000000044004400280028DC
:104C9400001000100010001000000000007C000450
:104CA40000080010001000200040007C00000000FC
:104CB4000018001000100010001000100010001068
:104CC4000010001800200020001000100010001038
:104CD4000008000800000000003000100010001060
:104CE4000010001000100010001000300010002808
:104CF4000028004400000000000000000000000044
:104D0400000000000000000000000000000000009F
:104D1400000000FE00200010000000000000000061
:104D24000000000000000000000000000038004403
:104D3400003C0044004C00340000000000400040EF
:104D4400005800640044004400640058000000005F
:104D540000000000003800440040004000440038D7
:104D640000000000000400040034004C004400442F
:104D7400004C003400000000000000000038004433
:104D8400007C00400044003800000000000C0010CB
:104D9400007C001000100010001000100000000043
:104DA400000000000034004C00440044004C003477
:104DB40000040078004000400058006400440044AF
:104DC40000440044000000000010000000700010C7
:104DD400001000100010001000000000001000007F
:104DE400007000100010001000100010001000E00F
:104DF400004000400048005000600050004800445B
:104E040000000000007000100010001000100010DE
:104E140000100010000000000000000000780054A2
:104E2400005400540054005400000000000000002E
:104E340000580064004400440044004400000000A2
:104E440000000000003800440044004400440038DE
:104E5400000000000000000000580064004400440A
:104E64000064005800400040000000000034004C82
:104E740000440044004C003400040004000000001E
:104E84000058006400400040004000400000000062
:104E940000000000003800440030000800440038DE
:104EA40000000000002000200078002000200020E6
:104EB400002000180000000000000000004400442E
:104EC40000440044004C00340000000000000000D6
:104ED40000440044002800280028001000000000BE
:104EE40000000000005400540054006C0028002806
:104EF4000000000000000000004400280010001022
:104F040000280044000000000000000000440044A9
:104F140000280028001000100010006000000000AD
:104F2400007C0008001000200040007C000000000D
:104F340000180010001000100020002000100010C5
:104F440000100018001000100010001000100010D5
:104F540000100010001000100030001000100010AD
:104F640000080008001000100010003000000000CD
:104F740000000074004C000000000000000000006D
:104F8400232D302B2000686C4C006566674546472E
:104F940000303132333435363738394142434445B1
:104FA4004600303132333435363738396162636420
:044FB400656600002E
:084FB80028B3FF7F0100000097
:044FC000F5010008EF
:044FC400D10100080F
:104FC8000024F400070A0000184800081000000038
:104FD8000100000018000020000000000000000090
:104FE80000000000000000000000000000000000B9
:104FF80000000000000000000000000000000000A9
:105008000000000000000000000000000000000098
:105018000000000000000000000000000000000088
:105028000000000000000000000000000000000078
:08503800000000000000000070
:04000005080012CD10
:00000001FF
