:020000040800F2
:1000000000000220312700081D26000823260008D2
:10001000292600082F2600083526000800000000C9
:100020000000000000000000000000003B26000867
:100030004926000800000000572600086526000831
:1000400081270008812700088127000881270008F0
:1000500081270008812700088127000881270008E0
:1000600081270008812700088127000881270008D0
:1000700081270008812700088127000881270008C0
:1000800081270008812700088127000881270008B0
:1000900081270008812700088127000881270008A0
:1000A0008127000881270008812700088127000890
:1000B0008127000881270008812700088127000880
:1000C0008127000881270008812700088127000870
:1000D0008127000881270008812700088127000860
:1000E0008127000881270008812700088127000850
:1000F0008127000881270008812700088127000840
:10010000812700088127000881270008812700082F
:10011000812700088127000881270008812700081F
:10012000812700088127000881270008812700080F
:10013000812700080000000000000000812700085F
:1001400081270008812700088127000881270008EF
:1001500081270008812700088127000881270008DF
:1001600081270008812700088127000881270008CF
:10017000812700088127000881270008000000006F
:1001800000000000812700080000000000000000BF
:1001900081270008000000000000000081270008FF
:1001A000000000000000000000000000812700089F
:1001B000812700088127000881270008812700087F
:0401C000812700088B
:1001D00010B5054C237833B9044B13B10448AFF381
:1001E00000800123237010BD90000020000000005B
:1001F0005098000808B5034B1BB103490348AFF3FF
:10020000008008BD00000000940000205098000805
:1002100001F0FF01102A2BDB10F0070F08D010F8B7
:10022000013B013A8B422DD010F0070F42B3F6D1BB
:10023000F0B441EA012141EA014122F007047FF0D4
:1002400000070023F0E80256083C85EA010586EA2B
:10025000010685FA47F5A3FA87F586FA47F6A5FA67
:1002600087F68EB9EED1F0BC01F0FF0102F0070273
:1002700032B110F8013B013A83EA010313B1F8D11E
:100280000020704701387047002D06BF35460338FF
:10029000073815F0010F07D1013015F4807F02BF38
:1002A000013015F4C03F0130F0BC0138704700BF89
:1002B00081F0004102E000BF83F0004330B54FEA17
:1002C00041044FEA430594EA050F08BF90EA020F84
:1002D0001FBF54EA000C55EA020C7FEA645C7FEA17
:1002E000655C00F0E2804FEA5454D4EB5555B8BF3A
:1002F0006D420CDD2C4480EA020281EA030382EAAB
:10030000000083EA010180EA020281EA0303362D3C
:1003100088BF30BD11F0004F4FEA01314FF4801C0F
:100320004CEA113102D0404261EB410113F0004F21
:100330004FEA03334CEA133302D0524263EB4303D8
:1003400094EA050F00F0A780A4F10104D5F1200E76
:100350000DDB02FA0EFC22FA05F2801841F10001D1
:1003600003FA0EF2801843FA05F359410EE0A5F1A5
:1003700020050EF1200E012A03FA0EFC28BF4CF0D6
:10038000020C43FA05F3C01851EBE37101F000458C
:1003900007D54FF0000EDCF1000C7EEB00006EEB99
:1003A0000101B1F5801F1BD3B1F5001F0CD3490823
:1003B0005FEA30004FEA3C0C04F101044FEA44527A
:1003C00012F5800F80F09A80BCF1004F08BF5FEA01
:1003D000500C50F1000041EB045141EA050130BDE1
:1003E0005FEA4C0C404141EB0101013C28BFB1F5F3
:1003F000801FE9D291F0000F04BF01460020B1FA3E
:1004000081F308BF2033A3F10B03B3F120020CDA10
:100410000C3208DD02F1140CC2F10C0201FA0CF0EE
:1004200021FA02F10CE002F11402D8BFC2F1200C53
:1004300001FA02F120FA0CFCDCBF41EA0C01904009
:10044000E41AA2BF01EB0451294330BD6FEA040452
:100450001F3C1CDA0C340EDC04F11404C4F120023D
:1004600020FA04F001FA02F340EA030021FA04F34F
:1004700045EA030130BDC4F10C04C4F1200220FAA6
:1004800002F001FA04F340EA0300294630BD21FAE4
:1004900004F0294630BD94F0000F83F4801306BFAA
:1004A00081F480110134013D4EE77FEA645C18BF9E
:1004B0007FEA655C29D094EA050F08BF90EA020F35
:1004C00005D054EA000C04BF1946104630BD91EA2D
:1004D000030F1EBF0021002030BD5FEA545C05D130
:1004E0004000494128BF41F0004130BD14F580046F
:1004F0003CBF01F5801130BD01F0004545F0FE41E3
:1005000041F470014FF0000030BD7FEA645C1ABF17
:10051000194610467FEA655C1CBF0B46024650EA4E
:10052000013406BF52EA033591EA030F41F400217A
:1005300030BD00BF90F0000F04BF0021704730B500
:100540004FF4806404F132044FF000054FF00001D5
:1005500050E700BF90F0000F04BF0021704730B596
:100560004FF4806404F1320410F0004548BF40426B
:100570004FF000013EE700BF42004FEAE2014FEAC0
:1005800031014FEA02701FBF12F07F4393F07F4F9B
:1005900081F06051704732F07F4208BF704793F09E
:1005A0007F4F04BF41F40021704730B54FF46074B1
:1005B00001F0004521F000411CE700BF50EA0102B4
:1005C00008BF704730B54FF000050AE050EA01025D
:1005D00008BF704730B511F0004502D5404261EBCD
:1005E00041014FF4806404F132045FEA915C3FF40E
:1005F000D8AE4FF003025FEADC0C18BF03325FEAAB
:10060000DC0C18BF033202EBDC02C2F1200300FA5B
:1006100003FC20FA02F001FA03FE40EA0E0021FA80
:1006200002F11444BDE600BF4FEA410212F5001288
:1006300015D211D56FF47873B3EB625212D94FEA29
:10064000C12343F0004343EA505311F0004F23FA13
:1006500002F018BF404270474FF00000704750EA68
:10066000013005D111F0004008BF6FF00040704725
:100670004FF00000704700BF53B94AB9002908BFC6
:1006800000281CBF4FF0FF314FF0FF3000F074B96D
:10069000ADF1080C6DE904CE00F006F8DDF804E0D9
:1006A000DDE9022304B070472DE9F047089D0446B8
:1006B0008E46002B4DD18A42944669D9B2FA82F215
:1006C00052B101FA02F3C2F1200120FA01F10CFA51
:1006D00002FC41EA030E94404FEA1C48210CBEFB89
:1006E000F8F61FFA8CF708FB16E341EA034306FB12
:1006F00007F199420AD91CEB030306F1FF3080F0A1
:100700001F81994240F21C81023E63445B1AA4B2ED
:10071000B3FBF8F008FB103344EA034400FB07F78F
:10072000A7420AD91CEB040400F1FF3380F00A81D0
:10073000A74240F207816444023840EA0640E41BC5
:1007400000261DB1D4400023C5E900433146BDE871
:10075000F0878B4209D9002D00F0EF800026C5E913
:10076000000130463146BDE8F087B3FA83F6002E2B
:100770004AD18B4202D3824200F2F980841A61EBA3
:10078000030301209E46002DE0D0C5E9004EDDE7C1
:1007900002B9FFDEB2FA82F2002A40F09280A1EBA9
:1007A0000C014FEA1C471FFA8CFE0126200CB1FBFE
:1007B000F7F307FB131140EA01410EFB03F08842F7
:1007C00008D91CEB010103F1FF3802D2884200F284
:1007D000CB804346091AA4B2B1FBF7F007FB101116
:1007E00044EA01440EFB00FEA64508D91CEB0404B4
:1007F00000F1FF3102D2A64500F2BB800846A4EB0F
:100800000E0440EA03409CE7C6F12007B34022FAF9
:1008100007FC4CEA030C20FA07F401FA06F31C4328
:10082000F9404FEA1C4900FA06F3B1FBF9F8200C35
:100830001FFA8CFE09FB181140EA014108FB0EF07B
:10084000884202FA06F20BD91CEB010108F1FF3ACB
:1008500080F08880884240F28580A8F102086144D7
:10086000091AA4B2B1FBF9F009FB101144EA0141E5
:1008700000FB0EFE8E4508D91CEB010100F1FF3490
:100880006CD28E456AD90238614440EA0840A0FB28
:100890000294A1EB0E01A142C846A64656D353D0FE
:1008A0005DB1B3EB080261EB0E0101FA07F722FA22
:1008B00006F3F1401F43C5E9007100263146BDE84B
:1008C000F087C2F12003D8400CFA02FC21FA03F3AE
:1008D000914001434FEA1C471FFA8CFEB3FBF7F02F
:1008E00007FB10360B0C43EA064300FB0EF69E4254
:1008F00004FA02F408D91CEB030300F1FF382FD2ED
:100900009E422DD9023863449B1B89B2B3FBF7F694
:1009100007FB163341EA034106FB0EF38B4208D96D
:100920001CEB010106F1FF3816D28B4214D9023EAE
:100930006144C91A46EA004638E72E46284605E7CC
:100940000646E3E61846F8E64B45A9D2B9EB02089D
:1009500064EB0C0E0138A3E74646EAE7204694E72D
:100960004046D1E7D0467BE7023B614432E7304660
:1009700009E76444023842E7704700BF80B500AF22
:1009800000221021034802F0B9FE012002F0A6F96E
:1009900000BF80BD0000024080B500AF01221021E1
:1009A000034802F0ABFE012002F098F900BF80BDC1
:1009B0000000024080B582B000AF0346FB7100BF6B
:1009C000084B1B689B6803F00203022BF8D1F91D4A
:1009D00064230122034804F042FC00BF0837BD46EF
:1009E00080BD00BF6022002080B582B000AF78607B
:1009F0000B467B8000BF084B1B689B6803F002031B
:100A0000022BF8D17A8864237968034804F027FC24
:100A100000BF0837BD4680BD6022002080B584B08D
:100A200002AFFF23FB7100BF094B1B689B6803F0FB
:100A30000203022BF8D1BA1DF91D64230093012390
:100A4000034804F048FDBB7918460837BD4680BD11
:100A50006022002080B582B000AF7860FFF7DEFF33
:100A600003461A467B681A7000BF0837BD4680BD32
:100A700080B582B000AF0A4B4FF4FA721A80FFF7CC
:100A8000CDFF0346FB71FB79FF2B03D0044B1B8882
:100A9000002BF4D1FB7918460837BD4680BD00BF56
:100AA000AE00002080B584B000AF41F6FF73FB605C
:100AB000FFF772FF0023BB6005E0FF20FFF77AFF1E
:100AC000BB680133BB60BB68092BF6DDFFF756FF3F
:100AD00040233B7000237B700023BB700023FB701E
:100AE00000233B7195237B713B4606211846FFF797
:100AF0007BFF02E0FB68013BFB60FFF78FFF0346D3
:100B0000012B02D0FB68002BF4D1FFF745FFFF203B
:100B1000FFF750FF034B01221A7000BF1037BD468C
:100B200080BD00BFB100002080B400AF034B0022A5
:100B30001A7000BFBD465DF8047B7047B10000200D
:100B400080B400AF034B1B781846BD465DF8047BAC
:100B5000704700BFB100002080B584B000AF78605E
:100B60003960134BC8221A80FFF758FF0346FB7306
:100B7000FB7BFF2B03D10E4B1B88002BF4D1FB7B9F
:100B8000FE2B01D000230FE07B685A1C7A601846C8
:100B9000FFF760FF3B685A1E3A60002BF4D1FFF765
:100BA0003DFFFFF73BFF012318461037BD4680BDD0
:100BB000AC00002080B584B000AF78600B46FB70BD
:100BC0000023BB73FFF754FF0346FF2B01D0002324
:100BD0002FE0FB781846FFF7EDFEFB78FD2B20D0C9
:100BE0004FF400717868FFF7FFFEFFF717FFFFF77C
:100BF00015FF0BE0FFF712FF0346FB73FB7B03F0CF
:100C00001F03052B06D0BB7B0133BB73BB7B402B83
:100C1000F0D900E000BF00BFFFF700FF0346002B44
:100C2000FAD0FB7B03F01F03052B01D1012300E069
:100C3000002318461037BD4680BD80B584B000AF94
:100C400003463960FB71FFF713FF0346FF2B01D00A
:100C5000FF2342E0FB791846FFF7ACFE3B681B0E12
:100C6000DBB21846FFF7A6FE3B681B0CDBB218464A
:100C7000FFF7A0FE3B681B0ADBB21846FFF79AFE9F
:100C80003B68DBB21846FFF795FEFB79402B02D19B
:100C90009523FB7307E0FB79482B02D18723FB7375
:100CA00001E00123FB73FB7B1846FFF783FEFB7912
:100CB0004C2B01D1FFF7B2FE0A23BB73FFF7AEFE48
:100CC00003467B7397F90D30002B05DABB7B013BA4
:100CD000BB73BB7B002BF1D17B7B18461037BD4625
:100CE00080BD000090B585B000AF0346FB71FB7975
:100CF000002B01D00123D1E06A4B1B78DBB203F05B
:100D00000203002B03D0674B1B78DBB2C6E0FFF772
:100D1000C9FEFFF733FE0023BB7300214020FFF71D
:100D20008CFF0346012B40F0A1805F4B4FF47A7299
:100D30001A804FF4D5714820FFF77FFF0346012B3F
:100D400055D10023FB730CE0FC7BFFF767FE0346E5
:100D50001A4604F110033B4403F8082CFB7B0133D3
:100D6000FB73FB7B032BEFD9BB7A012B7ED1FB7A84
:100D7000AA2B7BD100217720FFF75FFF0346012BD1
:100D800007D84FF080416920FFF757FF0346002B3B
:100D900004D0454B1B88002BECD100E000BF424B38
:100DA0001B88002B62D000217A20FFF746FF034604
:100DB000002B5BD10023FB730CE0FC7BFFF72EFEC6
:100DC00003461A4604F110033B4403F8082CFB7B4E
:100DD0000133FB73FB7B032BEFD93B7A03F040031A
:100DE000002B01D00C2300E00423BB733EE0002164
:100DF0007720FFF722FF0346012B08D80021692046
:100E0000FFF71BFF0346012B01D8022300E001235B
:100E1000BB73BB7B022B0ED100217720FFF70DFFA8
:100E20000346012B0ED800216920FFF706FF034679
:100E3000002B07D10CE000214120FFF7FEFE034606
:100E4000002B04D0184B1B88002BE2D100E000BF20
:100E5000154B1B88002B07D04FF400715020FFF773
:100E6000ECFE0346002B01D00023BB730F4ABB7B73
:100E70001370FFF791FDFFF7D1FDBB7B002B08D06E
:100E8000084B1B78DBB223F00103DAB2054B1A7072
:100E900001E0FFF749FE034B1B78DBB2184614371D
:100EA000BD4690BD00000020AC000020B000002036
:100EB00080B483B000AF0346FB71FB79002B01D0F7
:100EC000012302E0044B1B78DBB218460C37BD4609
:100ED0005DF8047B704700BF0000002080B584B03F
:100EE00000AFB9607A603B600346FB73FB7B002B6D
:100EF00002D13B68002B01D1042351E02A4B1B781F
:100F0000DBB203F00103002B01D0032348E0274BA1
:100F10001B7803F00403002B02D17B685B027B602B
:100F2000FFF72CFD3B68012B11D179685120FFF7A9
:100F300084FE0346002B29D14FF40071B868FFF7F7
:100F40000BFE0346002B21D000233B601EE0796896
:100F50005220FFF772FE0346002B17D14FF40071A9
:100F6000B868FFF7F9FD0346002B0AD0BB6803F50C
:100F70000073BB603B68013B3B603B68002BEDD1DD
:100F800000E000BF00214C20FFF757FEFFF704FDF3
:100F9000FFF744FD3B68002B14BF01230023DBB2A5
:100FA00018461037BD4680BD00000020B00000206C
:100FB00080B584B000AFB9607A603B600346FB73D4
:100FC000FB7B002B02D13B68002B01D104236BE09B
:100FD000374B1B78DBB203F00103002B01D0032356
:100FE00062E0334B1B78DBB203F00403002B01D02B
:100FF000022359E02F4B1B7803F00403002B02D18E
:101000007B685B027B60FFF7B9FC3B68012B10D16A
:1010100079685820FFF711FE0346002B3AD1FE21D4
:10102000B868FFF7C7FD0346002B33D000233B60B1
:1010300030E0204B1B7803F00203002B07D0002187
:101040007720FFF7FAFD39685720FFF7F6FD79683A
:101050005920FFF7F2FD0346002B1BD1FC21B86895
:10106000FFF7A8FD0346002B0AD0BB6803F5007309
:10107000BB603B68013B3B603B68002BEED100E06E
:1010800000BFFD210020FFF795FD0346002B01D195
:1010900001233B60FFF780FCFFF7C0FC3B68002B9F
:1010A00014BF01230023DBB218461037BD4680BDB4
:1010B00000000020B000002090B58BB000AF0346C8
:1010C0003A60FB710B46BB713B683B62FB79002BBE
:1010D00001D0042315E1012387F82730BB79052BC4
:1010E00024D13B6A1B78022B12D0022B1ADC002B76
:1010F00002D0012B06D015E0FFF716FD002387F87C
:101100002730FCE0FFF7CEFC002387F82730F6E01D
:101110003B6A5C1CFFF714FD03462370002387F82D
:101120002730ECE0042387F82730E8E0774B1B7882
:10113000DBB203F00103002B01D00323E1E0FFF752
:101140001DFCBB790D2B00F2CB8001A252F823F0DD
:101150004B120008891100083B120008E112000838
:10116000E1120008E1120008E1120008E112000893
:10117000E1120008E1120008E11200085D12000807
:1011800081120008A512000800214920FFF755FD33
:101190000346002B40F0A88007F10C0310211846ED
:1011A000FFF7DAFC0346002B00F09E803B7B9B0997
:1011B000DBB2012B0ED17B7D9AB23B7D9BB21B0231
:1011C0009BB213449BB20133FB83FB8B9A023B68B7
:1011D0001A602EE07B7C03F00F03DAB2BB7DDB09E3
:1011E000DBB21344DAB27B7D5B00DBB203F00603B3
:1011F000DBB21344DBB2023387F826303B7D9B0918
:10120000DBB29AB2FB7C9BB29B009BB213449AB2B6
:10121000BB7C9B029BB203F440639BB213449BB222
:101220000133FB83FA8B97F82630093B9A403B68E1
:101230001A60002387F8273056E03B684FF40072AD
:101240001A80002387F8273055E0FFF711FC03468A
:10125000FF2B4BD1002387F8273047E0002149209E
:10126000FFF7EBFC0346002B42D11021386AFFF751
:1012700073FC0346002B3BD0002387F8273037E070
:1012800000214A20FFF7D9FC0346002B32D1102160
:10129000386AFFF761FC0346002B2BD0002387F848
:1012A000273027E000217A20FFF7C7FC0346002BF8
:1012B00016D1002387F826300BE03C6A631C3B62A2
:1012C000FFF7ACFB0346237097F82630013387F80D
:1012D000263097F82630032BEFD9002387F82730E4
:1012E000042387F8273006E000BF04E000BF02E0D7
:1012F00000BF00E000BFFFF74FFBFFF78FFB97F841
:10130000273018462C37BD4690BD00BF0000002096
:1013100080B5CAB004AF01F06FFC00F0E5FD00F04D
:1013200063FF00F04FFE00F09FFE00F0CBFE00F0E8
:10133000F7FE00F023FF04F03BFB4FF4FA7001F0DE
:10134000CDFC0022D149D24806F046FE1322D149F5
:10135000D14806F087FE0A21CF4807F08BFA01F04A
:1013600049FA0521052001F0FDFBCC4A012306CAFC
:10137000CB4801F0D1FB034687F8133101F0C8FADE
:10138000002387F81231C74BC7F80C314FF08B435D
:10139000C7F80831002387F8AB3064230293012398
:1013A000019307F1AB03009301236B22D021BE48C8
:1013B00002F002FB0A2001F091FC072387F8AB3012
:1013C000642302930123019307F1AB0300930123EC
:1013D0001922D021B44802F0EFFA0A2001F07EFC75
:1013E000052387F8AB30642302930123019307F1AF
:1013F000AB03009301231A22D021AB4802F0DCFAA0
:101400000A2001F06BFC002387F8AB3064230293C1
:101410000123019307F1AB03009301236B22D02139
:10142000A14802F0C9FA0A2001F058FC6D2387F8A0
:10143000AB30642302930123019307F1AB030093C4
:1014400001231922D021984802F0B6FA0A2001F0AF
:1014500045FC182387F8AB306423029301230193E2
:1014600007F1AB03009301231B22D0218E4802F029
:10147000A3FA0A2001F032FC082387F8AB3064237A
:1014800002930123019307F1AB03009301231C2274
:10149000D021854802F090FA0A2001F01FFC0123B8
:1014A00087F8AB30642302930123019307F1AB0368
:1014B000009301233822D0217B4802F07DFA0A20D4
:1014C00001F00CFC002387F8AB3064230293012366
:1014D000019307F1AB03009301236A22D0217248E4
:1014E00002F06AFA0A2001F0F9FB022387F8AB3018
:1014F000642302930123019307F1AB0300930123BB
:101500003722D021684802F057FA0A2001F0E6FBA2
:10151000182387F8AB30642302930123019307F16A
:10152000AB030093012300223C215F4802F044FA00
:101530000A2001F0D3FB602387F8AB3064230293C9
:101540000123019307F1AB030093012301223C2106
:10155000554802F031FA0A2001F0C0FB002387F859
:10156000AB30642302930123019307F1AB03009393
:10157000012302223C214C4802F01EFA0A2001F00D
:10158000ADFB002387F8AB30642302930123019362
:1015900007F1AB03009301236B22D021424802F0F4
:1015A0000BFA0A2001F09AFB002387F8AB30642382
:1015B00002930123019307F1AB0300930123372228
:1015C000D021394802F0F8F90A2001F087FB002306
:1015D00087F8AB30642302930123019307F1AB0337
:1015E000009301236B22D0212F4802F0E5F90A2055
:1015F00001F074FB222387F8AB30642302930123AC
:10160000019307F1AB03009301236A22D0212648FE
:1016100002F0D2F90A2001F061FB0D2387F8AB300C
:10162000642302930123019307F1AB030093012389
:101630002422D0211C4802F0BFF90A2001F04EFB01
:10164000002387F8AB30642302930123019307F151
:10165000AB03009301236B22D021134802F0ACF9B5
:101660000A2001F03BFB9E2387F8AB3064230293F2
:101670000123019307F1AB03009301232522D0211D
:10168000094802F099F90A2010E000BF68980008A4
:10169000B40000206C980008EC1000200800002026
:1016A00078980008333303426421002001F016FBD0
:1016B000032387F8AB30642302930123019307F1DE
:1016C000AB03009301232622D021E44802F074F9F1
:1016D0000A2001F003FB862387F8AB3064230293D2
:1016E0000123019307F1AB03009301232722D021AB
:1016F000DA4802F061F90A2001F0F0FA0023C7F895
:10170000143101220821D64801F0F8FF6423029326
:10171000142301933B46009301233B22D021CF4861
:1017200002F044FA07F58C73A3F58C731B781B0247
:101730001AB207F58C73A3F58C735B781BB2134355
:10174000A7F8063107F58C73A3F58C739B781B0201
:101750001AB207F58C73A3F58C73DB781BB21343B5
:10176000A7F8043107F58C73A3F58C731B791B0262
:101770001AB207F58C73A3F58C735B791BB2134314
:10178000A7F8023107F58C73A3F58C739B791B02C4
:101790001AB207F58C73A3F58C73DB791BB2134374
:1017A000A7F8003107F58C73A3F58C731B7A1B0225
:1017B0001AB207F58C73A3F58C735B7A1BB21343D3
:1017C000A7F8FE3007F58C73A3F58C739B7A1B0288
:1017D0001AB207F58C73A3F58C73DB7A1BB2134333
:1017E000A7F8FC3007F58C73A3F58C731B7B1B02E9
:1017F0001AB207F58C73A3F58C735B7B1BB2134392
:10180000A7F8FA3007F58C73A3F58C739B7B1B024A
:101810001AB207F58C73A3F58C73DB7B1BB21343F1
:10182000A7F8F83007F58C73A3F58C731B7C1B02AB
:101830001AB207F58C73A3F58C735B7C1BB2134350
:10184000A7F8F63007F58C73A3F58C739B7C1B020D
:101850001AB207F58C73A3F58C73DB7C1BB21343B0
:10186000A7F8F430B7F9063107EE903AB8EEE77A08
:10187000DFED7C6AC7EE267AC7ED3C7AB7F9043112
:1018800007EE903AB8EEE77ADFED766AC7EE267A91
:10189000C7ED3B7AB7F9023107EE903AB8EEE77A36
:1018A000DFED706AC7EE267AC7ED3A7AB7F90031F4
:1018B00007EE903AB8EEE77ADFED6B6AC7EE267A6C
:1018C0009FED6A7A77EE877AC7ED397AB7F9FE30FD
:1018D00007EE903AB8EEE77ADFED656AC7EE267A52
:1018E000C7ED387AB7F9FC3007EE903AB8EEE77AF0
:1018F000DFED5F6AC7EE267AC7ED377AB7F9FA30BF
:1019000007EE903AB8EEE77ADFED596AC7EE267A2D
:10191000C7ED367AB7F9F83007EE903AB8EEE77AC5
:10192000DFED546AC7EE267AC7ED357AB7F9F6309F
:1019300007EE903AB8EEE77ADFED4E6AC7EE267A08
:10194000C7ED347AB7F9F43007EE903AB8EEE77A9B
:10195000DFED486AC7EE267AC7ED337AD7ED3C7AD9
:10196000FDEEE77A17EE903AC7F8C830D7F8C830DE
:1019700007EE903AF8EEE77A97ED3C7A77EE677AE1
:10198000C7ED317AD7ED317A9FED3C7A67EE877AF1
:1019900017EE900AFEF7F0FD02460B4643EC102BC3
:1019A00007F084FA53EC102B10461946FEF73CFE64
:1019B0000346C7F8C03007F1A000D7F8C030D7F809
:1019C000C8202D4907F0EEFBD7ED3B7AFDEEE77A14
:1019D00017EE903AC7F8C830D7F8C83007EE903AFB
:1019E000F8EEE77A97ED3B7A77EE677AC7ED317AD2
:1019F000D7ED317A9FED217A67EE877A17EE900A5C
:101A0000FEF7BAFD02460B4643EC102B07F04EFAE8
:101A100053EC102B10461946FEF706FE0346C7F896
:101A2000C03007F18800D7F8C030D7F8C820124975
:101A300007F0B8FBD7ED3A7AFDEEE77A17EE903A69
:101A4000C7F8C830D7F8C83007EE903AF8EEE77A12
:101A500097ED3A7A77EE677A12E000BF64210020B2
:101A600000080240000000460000AA43B81E1242CF
:101A7000A6E96A44000025448098000800007A44E2
:101A8000C7ED317AD7ED317A1FED047A67EE877AA8
:101A900017EE900AFEF770FD02460B4643EC102B42
:101AA00007F004FA53EC102B10461946FEF7BCFD64
:101AB0000346C7F8C03007F17C00D7F8C030D7F82C
:101AC000C820EA4907F06EFBD7ED387AFDEEE77AD9
:101AD00017EE903AC7F8C830D7F8C83007EE903AFA
:101AE000F8EEE77A97ED387A77EE677AC7ED317AD4
:101AF000D7ED317A9FEDDE7A67EE877A17EE900A9E
:101B0000FEF73AFD02460B4643EC102B07F0CEF9E8
:101B100053EC102B10461946FEF786FD0346C7F816
:101B2000C03007F17000D7F8C030D7F8C820CF49CF
:101B300007F038FBD7ED377AFDEEE77A17EE903AEB
:101B4000C7F8C830D7F8C83007EE903AF8EEE77A11
:101B500097ED377A77EE677AC7ED317AD7ED317A3C
:101B60009FEDC37A67EE877A17EE900AFEF704FDC1
:101B700002460B4643EC102B07F098F953EC102B60
:101B800010461946FEF750FD0346C7F8C03007F16E
:101B90006400D7F8C030D7F8C820B44907F002FB7A
:101BA000D7ED367AFDEEE77A17EE903AC7F8C830EF
:101BB000D7F8C83007EE903AF8EEE77A97ED367A24
:101BC00077EE677AC7ED317AD7ED317A9FEDA87A53
:101BD00067EE877A17EE900AFEF7CEFC02460B46B8
:101BE00043EC102B07F062F953EC102B104619460A
:101BF000FEF71AFD0346C7F8C03007F15800D7F8C2
:101C0000C030D7F8C820994907F0CCFAB7F9F830B6
:101C1000C7F8C830B7F9F820D7F8C830D31A07EE9C
:101C2000903AF8EEE77AC7ED317AD7ED317A9FED49
:101C3000907A67EE877A17EE900AFEF79DFC0246CF
:101C40000B4643EC102B07F031F953EC102B1046E8
:101C50001946FEF7E9FC0346C7F8C03007F14C000F
:101C6000D7F8C030D7F8C820804907F09BFAB7F9F9
:101C7000F630C7F8C830B7F9F620D7F8C830D31A0D
:101C800007EE903AF8EEE77AC7ED317AD7ED317A80
:101C90009FED777A67EE877A17EE900AFEF76CFC75
:101CA00002460B4643EC102B07F000F953EC102BC7
:101CB00010461946FEF7B8FC0346C7F8C03007F1D6
:101CC0004000D7F8C030D7F8C820684907F06AFA52
:101CD000B7F9F430C7F8C830B7F9F420D7F8C830EE
:101CE000D31A07EE903AF8EEE77AC7ED317AD7EDDE
:101CF000317A9FED5F7A67EE877A17EE900AFEF7EA
:101D00003BFC02460B4643EC102B07F0CFF853EC9C
:101D1000102B10461946FEF787FC0346C7F8C03063
:101D200007F13400D7F8C030D7F8C8204F4907F082
:101D300039FAD7ED397AFDEEE77A17EE903AC7F81F
:101D4000C830D7F8C83007EE903AF8EEE77A97ED4A
:101D5000397A77EE677AC7ED317AD7ED317A9FED30
:101D6000447A67EE877A17EE900AFEF705FC024682
:101D70000B4643EC102B07F099F853EC102B104650
:101D80001946FEF751FC0346C7F8C03007F128009A
:101D9000D7F8C030D7F8C820344907F003FA07F164
:101DA000A0033449184607F000F83249324806F0DB
:101DB000FCFF07F188032F49184606F0F6FF2D496E
:101DC0002D4806F0F2FF07F17C032A49184606F079
:101DD000ECFF2849284806F0E8FF07F17003254981
:101DE000184606F0E2FF2349234806F0DEFF07F11C
:101DF00064032049184606F0D8FF1E491E4806F025
:101E0000D4FF07F158031B49184606F0CEFF1949C5
:101E1000194806F0CAFF07F14C031649184606F0A8
:101E2000C4FF1449144806F0C0FF07F140031149EC
:101E3000184606F0BAFF0F490F4806F0B6FF07F143
:101E400034030C49184606F0B0FF0A490A4806F068
:101E5000ACFF07F128030749184606F0A6FF05491D
:101E6000054806F0A2FF034908E000BF809800087B
:101E700000007A44EC10002088980008164806F00C
:101E800094FF0F21002000F06DFE144A07F1880036
:101E9000012306CA00F040FE034687F8133100F024
:101EA00037FDD7F814310133C7F81431D7F814319E
:101EB00041F2883293427FF729AC094806F0B0FC22
:101EC00000220821074801F019FC0023184607F5F5
:101ED0008C77BD4680BD00BF8C98000808000020AC
:101EE000EC1000200008024080B594B000AF07F16C
:101EF0001C0334220021184607F05CF807F10803A0
:101F000000221A605A609A60DA601A6100237B60CE
:101F10002A4B1B6C294A43F080531364274B1B6CDC
:101F200003F080537B607B6800233B60244B1B687D
:101F300023F44043224A43F480431360204B1B6840
:101F400003F440433B603B680223FB610123BB6217
:101F50001023FB6202237B630023BB630C23FB6320
:101F6000B4233B6402237B640223BB640223FB642F
:101F700007F11C03184602F04BFE0346002B01D06C
:101F800000F09EF90F23BB600223FB6000233B613E
:101F90004FF4A0537B614FF48053BB6107F10803FA
:101FA0000321184602F084FB0346002B01D000F009
:101FB00087F900BF5037BD4680BD00BF00380240E2
:101FC0000070004080B584B000AF3B4600221A602C
:101FD0005A609A60DA60214B214A1A601F4B002236
:101FE0005A601E4B00229A601C4B00221A611B4B48
:101FF00000221A76194B002283F82020174B00226A
:10200000DA62164B174A9A62144B0022DA60134BBD
:102010000122DA61114B002283F830200F4B01229C
:102020005A610E4800F07EFE0346002B01D000F0FE
:1020300047F901233B6001237B600023BB603B46E3
:102040001946064800F0B2FE0346002B01D000F00E
:1020500037F900BF1037BD4680BD00BF1C210020EE
:10206000002001400100000F80B500AF124B134A61
:102070001A60114B124A5A600F4B00229A600E4BA5
:102080000022DA600C4B4FF480421A610A4B0022A6
:102090005A61094B00229A61074B0022DA61064B14
:1020A00000221A62044801F043FB0346002B01D0D2
:1020B00000F006F900BF80BD6421002000540040FC
:1020C000801A060080B500AF124B134A1A60114BFC
:1020D000124A5A600F4B00229A600E4B0022DA60BF
:1020E0000C4B4FF480421A610A4B00225A61094B93
:1020F00000229A61074B0022DA61064B00221A6225
:10210000044801F015FB0346002B01D000F0D8F87D
:1021100000BF80BDB821002000580040A08601000B
:1021200080B500AF124B134A1A60114B124A5A6025
:102130000F4B00229A600E4B0022DA600C4B4FF4DA
:1021400080421A610A4B00225A61094B00229A61AF
:10215000074B0022DA61064B00221A62044801F0A4
:10216000E7FA0346002B01D000F0AAF800BF80BDBB
:102170000C220020005C0040801A060080B500AFF1
:10218000174B184A1A60164B4FF482725A60144B60
:1021900000229A60124B0022DA60114B00221A6171
:1021A0000F4B00225A610E4B4FF400729A610C4B98
:1021B0000022DA610A4B00221A62094B00225A629D
:1021C000074B00229A62064B0A22DA62044802F0A8
:1021D000BDFF0346002B01D000F072F800BF80BDA8
:1021E000602200200030014080B58AB000AF07F1C6
:1021F000140300221A605A609A60DA601A610023A0
:102200003B612C4B1B6B2B4A43F080031363294B20
:102210001B6B03F080033B613B690023FB60254B94
:102220001B6B244A43F004031363224B1B6B03F024
:102230000403FB60FB680023BB601E4B1B6B1D4A45
:1022400043F0010313631B4B1B6B03F00103BB60E3
:10225000BB6800237B60174B1B6B164A43F00203DD
:102260001363144B1B6B03F002037B607B6800223B
:102270000821114801F042FA08237B610123BB6168
:102280000023FB6100233B6207F1140319460A484F
:1022900001F0A0F818237B610023BB610023FB61E0
:1022A00007F114031946054801F094F800BF2837D8
:1022B000BD4680BD003802400008024000040240D4
:1022C00080B400AF72B600BFFEE7000080B483B0F8
:1022D00000AF00237B60104B5B6C0F4A43F48043DC
:1022E00053640D4B5B6C03F480437B607B6800237D
:1022F0003B60094B1B6C084A43F080531364064B48
:102300001B6C03F080533B603B6800BF0C37BD463D
:102310005DF8047B704700BF0038024080B58AB08A
:1023200000AF786007F1140300221A605A609A60C7
:10233000DA601A617B681B68174A934227D1002331
:102340003B61164B5B6C154A43F480735364134B2B
:102350005B6C03F480733B613B690023FB600F4BB4
:102360001B6B0E4A43F0010313630C4B1B6B03F012
:102370000103FB60FB6802237B610323BB61002335
:10238000FB6107F114031946054801F023F800BF6B
:102390002837BD4680BD00BF002001400038024004
:1023A0000000024080B590B000AF786007F12C03C8
:1023B00000221A605A609A60DA601A617B681B68B2
:1023C0006B4A93422DD10023BB626A4B1B6B694A57
:1023D00043F002031363674B1B6B03F00203BB6202
:1023E000BB6A4FF44073FB6212233B6300237B63A1
:1023F0000323BB630423FB6307F12C0319465E48E8
:1024000000F0E8FF00237B625A4B1B6C594A43F4EF
:1024100000131364574B1B6C03F400137B627B6A3D
:10242000A2E07B681B68554A93424CD100233B6273
:10243000504B1B6B4F4A43F0020313634D4B1B6B16
:1024400003F002033B623B6A0023FB61494B1B6BB9
:10245000484A43F004031363464B1B6B03F0040329
:10246000FB61FB694FF48063FB6212233B63002333
:102470007B630323BB630423FB6307F12C0319462F
:102480003D4800F0A7FF4FF48053FB6212233B63EB
:1024900000237B630323BB630423FB6307F12C034B
:1024A0001946374800F096FF0023BB61314B1B6C87
:1024B000304A43F4800313642E4B1B6C03F48003F7
:1024C000BB61BB6950E07B681B682E4A93424BD1CD
:1024D00000237B61274B1B6B264A43F004031363E5
:1024E000244B1B6B03F004037B617B6900233B617E
:1024F000204B1B6B1F4A43F0010313631D4B1B6BE7
:1025000003F001033B613B694FF40073FB6212234C
:102510003B6300237B630323BB630423FB6307F15B
:102520002C031946164800F055FF4FF48073FB62E8
:1025300012233B6300237B630323BB630423FB63FE
:1025400007F12C031946104800F044FF0023FB60FC
:10255000084B1B6C074A43F400031364054B1B6CC8
:1025600003F40003FB60FB6800BF4037BD4680BD3D
:10257000005400400038024000040240005800406F
:1025800000080240005C00400000024080B58AB0B4
:1025900000AF786007F1140300221A605A609A6055
:1025A000DA601A617B681B68194A93422BD10023B9
:1025B0003B61184B5B6C174A43F480535364154BD3
:1025C0005B6C03F480533B613B690023FB60114B60
:1025D0001B6B104A43F0010313630E4B1B6B03F09C
:1025E0000103FB60FB68E0237B610223BB610023E6
:1025F000FB6103233B6205237B6207F11403194649
:10260000054800F0E7FE00BF2837BD4680BD00BF8B
:1026100000300140003802400000024080B400AFAA
:10262000FEE780B400AFFEE780B400AFFEE780B401
:1026300000AFFEE780B400AFFEE780B400AF00BF9C
:10264000BD465DF8047B704780B400AF00BFBD4657
:102650005DF8047B704780B400AF00BFBD465DF8F5
:10266000047B704780B500AF0B4B1B88002B05D057
:10267000094B1B88013B9AB2074B1A80074B1B88FA
:10268000002B05D0054B1B88013B9AB2034B1A80E7
:1026900000F004FB00BF80BDAC000020AE000020B5
:1026A00080B586B000AF7860144A154BD31A7B61B1
:1026B0007B693B61134B1B68002B02D1114B124A03
:1026C0001A60104B1A687B6813443A699A4207D221
:1026D00006F01EFC03460C221A604FF0FF3309E09F
:1026E000084B1B68FB60074B1A687B681344054A5C
:1026F0001360FB6818461837BD4680BD00000220F5
:1027000000040000B82200201827002080B400AF89
:10271000064BD3F88830054A43F47003C2F888307A
:1027200000BFBD465DF8047B704700BF00ED00E0D0
:10273000DFF834D00D480E490E4A002302E0D45889
:10274000C4500433C4188C42F9D30B4A0B4C0023F9
:1027500001E013600432A242FBD3FFF7D7FF06F07B
:10276000DDFBFEF7D5FD70470000022000000020D1
:1027700090000020DCA40008900000201427002016
:10278000FEE780B400AF00BFBD465DF8047B704734
:1027900080B586B004AF0346FB714FF0FF33029360
:1027A00001230193FB1D009301230022782103489C
:1027B00001F002F900BF0837BD4680BDB8210020F6
:1027C00080B586B004AF786039603B689BB24FF04B
:1027D000FF32029201937B6800930123402278210B
:1027E000034801F0E9F800BF0837BD4680BD00BFCF
:1027F000B821002080B500AFFFF7C3FF642000F0D0
:102800006DFA002000F0DAF92020FFF7C1FF002068
:10281000FFF7BEFFB020FFF7BBFFC820FFF7B8FFF0
:102820000020FFF7B5FF1020FFF7B2FF4020FFF7B1
:10283000AFFFFF2000F0AEF9A120FFF7A9FFA6200F
:10284000FFF7A6FFA820FFF7A3FF1F20FFF7A0FFB9
:10285000A420FFF79DFFD320FFF79AFF0020FFF78A
:1028600097FFD520FFF794FFF020FFF791FFD920C5
:10287000FFF78EFF2220FFF78BFFDA20FFF788FF9C
:102880000220FFF785FFDB20FFF782FF2020FFF704
:102890007FFF8D20FFF77CFF1420FFF779FF0120D9
:1028A00000F08CF9002000F00FF800F031F8054B33
:1028B00000221A80034B00225A80024B01221A7117
:1028C00000BF80BDBC24002080B485B000AF0346AB
:1028D000FB710023FB600DE0FB79002B01D100218F
:1028E00000E0FF21094AFB6813440A461A70FB689E
:1028F0000133FB60FB68B3F5007FEDD300BF00BF81
:102900001437BD465DF8047B704700BFBC22002031
:1029100080B582B000AF0023FB7116E0FB79503B1D
:10292000DBB21846FFF734FF0020FFF731FF10201D
:10293000FFF72EFFFB79DB01084A1344802118467C
:10294000FFF73EFFFB790133FB71FB79032BE5D9E0
:1029500000BF00BF0837BD4680BD00BFBC220020BD
:1029600080B483B000AF0346FB710B46BB711346C6
:102970007B7197F90730002B3DDBBB791F2B3AD8D1
:102980007B79012B1AD1FA79BB79DB08D8B20346DF
:10299000DB0113441B4AD35C5AB2BB7903F0070333
:1029A000012101FA03F35BB2134359B2FA790346EA
:1029B000DB011344C9B2134AD1541DE0FA79BB7943
:1029C000DB08D8B20346DB0113440E4AD35C5AB28B
:1029D000BB7903F00703012101FA03F35BB2DB4388
:1029E0005BB2134059B2FA790346DB011344C9B212
:1029F000044AD15400E000BF0C37BD465DF8047BAB
:102A0000704700BFBC22002090B589B000AF0446DB
:102A1000381D80E806001A462346FB731346BB7335
:102A2000FB7B1F2B02D9FB7B7E2B01D900236DE0A2
:102A3000384B1B881A463B791344802B06DC354BF8
:102A40005B881A467B791344202B01DD00235DE06F
:102A50000023FB614CE0BA68FB7B203B797901FBEA
:102A600003F31946FB690B445B0013441B887B612D
:102A70000023BB6134E07A69BB6902FA03F303F413
:102A80000043002B12D0234B1B88DAB2BB69DBB2A8
:102A90001344D8B21F4B5B88DAB2FB69DBB2134434
:102AA000DBB2BA7B1946FFF75BFF16E0194B1B88B8
:102AB000DAB2BB69DBB21344D8B2164B5B88DAB228
:102AC000FB69DBB21344D9B2BB7B002B0CBF0123E3
:102AD0000023DBB21A46FFF743FFBB690133BB613A
:102AE0003B791A46BB699342C5D3FB690133FB614D
:102AF0007B791A46FB699342ADD3064B1A883B7922
:102B00009BB213449AB2034B1A80FB7B18462437BE
:102B1000BD4690BDBC24002080B584B000AFF860F5
:102B2000381D80E80600FB7012E0FB681878FB781F
:102B30003A1D06CAFFF768FF03461A46FB681B7872
:102B40009A4202D0FB681B7808E0FB680133FB6007
:102B5000FB681B78002BE8D1FB681B781846103700
:102B6000BD4680BD80B483B000AF03460A46FB710A
:102B70001346BB71FB799AB2054B1A80BB799AB2A6
:102B8000034B5A8000BF0C37BD465DF8047B70478D
:102B9000BC24002080B584B000AF0346FB718123C4
:102BA000FB73FB7B1846FFF7F3FDFB791846FFF735
:102BB000EFFD00BF1037BD4680BD000080B584B07A
:102BC00000AF0346FB71FB79002B05D0AF23FB73ED
:102BD000084B01225A7104E0AE23FB73054B00221F
:102BE0005A71FB7B1846FFF7D3FD00BF1037BD4677
:102BF00080BD00BFBC24002080B500AF0E4B1B6819
:102C00000D4A43F4007313600B4B1B680A4A43F4EC
:102C100080631360084B1B68074A43F4807313609A
:102C2000032000F0A3FB0F2000F008F8FFF74EFB95
:102C30000023184680BD00BF003C024080B582B032
:102C400000AF7860124B1A68124B1B7819464FF48C
:102C50007A73B3FBF1F3B2FBF3F3184600F0ADFB6C
:102C60000346002B01D001230EE07B680F2B0AD80E
:102C7000002279684FF0FF3000F083FB064A7B6842
:102C80001360002300E0012318460837BD4680BDCD
:102C900004000020140000201000002080B400AFC9
:102CA000064B1B781A46064B1B681344044A1360F4
:102CB00000BFBD465DF8047B704700BF14000020D4
:102CC000C424002080B400AF034B1B681846BD46E7
:102CD0005DF8047B704700BFC424002080B584B039
:102CE00000AF7860FFF7EEFFB8607B68FB60FB68C1
:102CF000B3F1FF3F05D00A4B1B781A46FB6813441B
:102D0000FB6000BFFFF7DEFF0246BB68D31AFA681C
:102D10009A42F7D800BF00BF1037BD4680BD00BF44
:102D20001400002080B584B000AF78600023FB73EE
:102D30007B68002B01D1012333E07B681B6C002BE7
:102D400009D17868FFF7EAFA7B6800225A647B6849
:102D5000002283F83C207B681B6C03F01003002BDF
:102D600018D17B681B6C23F4885323F0020343F0D3
:102D700002027B681A64786800F04AF97B680022D6
:102D80005A647B681B6C23F0030343F001027B68E9
:102D90001A6401E00123FB737B68002283F83C2066
:102DA000FB7B18461037BD4680BD000080B485B05F
:102DB00000AF786039600023BB607B6893F83C30DB
:102DC000012B01D1022313E17B68012283F83C200F
:102DD0003B681B68092B25D97B681B68D9683B6851
:102DE0001B689BB21A4613465B0013441E3B072226
:102DF00002FA03F3DA437B681B680A40DA607B68F7
:102E00001B68D9683B689A683B681B689BB2184688
:102E100003465B0003441E3B9A407B681B680A43E1
:102E2000DA6022E07B681B6819693B681B689BB20B
:102E30001A4613465B001344072202FA03F3DA43EF
:102E40007B681B680A401A617B681B6819693B68CC
:102E50009A683B681B689BB2184603465B000344B4
:102E60009A407B681B680A431A613B685B68062BC3
:102E700024D87B681B68596B3B685A6813469B00D3
:102E80001344053B1F2202FA03F3DA437B681B68F5
:102E90000A405A637B681B68596B3B681B689BB28E
:102EA00018463B685A6813469B001344053B00FADA
:102EB00003F27B681B680A435A634CE03B685B681B
:102EC0000C2B24D87B681B68196B3B685A68134627
:102ED0009B001344233B1F2202FA03F3DA437B686F
:102EE0001B680A401A637B681B68196B3B681B6888
:102EF0009BB218463B685A6813469B001344233B19
:102F000000FA03F27B681B680A431A6323E07B68BC
:102F10001B68D96A3B685A6813469B001344413BBF
:102F20001F2202FA03F3DA437B681B680A40DA6265
:102F30007B681B68D96A3B681B689BB218463B6874
:102F40005A6813469B001344413B00FA03F27B6826
:102F50001B680A43DA62294BFB607B681B68284ABE
:102F600093420FD13B681B68122B0BD1FB685B6847
:102F700023F40002FB685A60FB685B6843F480023C
:102F8000FB685A607B681B681D4A93422BD13B68E3
:102F90001B681C4A934203D03B681B68112B22D14B
:102FA000FB685B6823F48002FB685A60FB685B681F
:102FB00043F40002FB685A603B681B68114A934265
:102FC00011D1114B1B68114AA2FB03239A0C134623
:102FD0009B0013445B00BB6002E0BB68013BBB602D
:102FE000BB68002BF9D17B68002283F83C200023CA
:102FF00018461437BD465DF8047B70470023014036
:1030000000200140120000100400002083DE1B435A
:1030100080B485B000AF7860794BFB60FB685B687B
:1030200023F44032FB685A60FB685A687B685B682F
:103030001A43FB685A607B681B685A687B681B6888
:1030400022F480725A607B681B6859687B681B6930
:103050001A027B681B680A435A607B681B685A68BF
:103060007B681B6822F040725A607B681B68596855
:103070007B689A687B681B680A435A607B681B6898
:103080009A687B681B6822F400629A607B681B6800
:1030900099687B68DA687B681B680A439A607B687A
:1030A0009B6A584A934222D07B681B689A687B6867
:1030B0001B6822F070629A607B681B6899687B6865
:1030C0009A6A7B681B680A439A607B681B689A68E7
:1030D0007B681B6822F040529A607B681B68996885
:1030E0007B68DA6A7B681B680A439A600FE07B683A
:1030F0001B689A687B681B6822F070629A607B6824
:103100001B689A687B681B6822F040529A607B6853
:103110001B689A687B681B6822F002029A607B68D1
:103120001B6899687B681B7E5A007B681B680A4392
:103130009A607B6893F82030002B1BD07B681B685B
:103140005A687B681B6842F400625A607B681B689F
:103150005A687B681B6822F460425A607B681B686F
:1031600059687B685B6A013B5A037B681B680A43AA
:103170005A6007E07B681B685A687B681B6822F40A
:1031800000625A607B681B68DA6A7B681B6822F4FD
:103190007002DA627B681B68D96A7B68DB69013B75
:1031A0001A057B681B680A43DA627B681B689A68A9
:1031B0007B681B6822F400729A607B681B689968C0
:1031C0007B6893F830305A027B681B680A439A6028
:1031D0007B681B689A687B681B6822F480629A602F
:1031E0007B681B6899687B685B699A027B681B68CF
:1031F0000A439A6000BF1437BD465DF8047B7047F0
:10320000002301400100000F80B485B000AF78605A
:103210007B6803F00703FB600C4BDB68BB60BA689C
:103220004FF6FF031340BB60FB681A02BB681343F1
:1032300043F0BF6343F40033BB60044ABB68D36010
:1032400000BF1437BD465DF8047B704700ED00E019
:1032500080B400AF044BDB681B0A03F00703184679
:10326000BD465DF8047B704700ED00E080B483B09C
:1032700000AF03463960FB7197F90730002B0ADB7A
:103280003B68DAB20C4997F907301201D2B20B440D
:1032900083F800230AE03B68DAB20849FB7903F0BF
:1032A0000F03043B1201D2B20B441A7600BF0C3755
:1032B000BD465DF8047B704700E100E000ED00E0F2
:1032C00080B489B000AFF860B9607A60FB6803F041
:1032D0000703FB61FB69C3F10703042B28BF042329
:1032E000BB61FB690433062B02D9FB69033B00E099
:1032F00000237B614FF0FF32BB6902FA03F3DA432C
:10330000BB681A407B699A404FF0FF317B6901FA34
:1033100003F3D9437B680B40134318462437BD465B
:103320005DF8047B7047000080B582B000AF786024
:103330007B68013BB3F1807F01D301230FE00A4A90
:103340007B68013B53600F214FF0FF30FFF78EFF8A
:10335000054B00229A60044B07221A60002318468E
:103360000837BD4680BD00BF10E000E080B582B0E8
:1033700000AF78607868FFF747FF00BF0837BD46A9
:1033800080BD80B586B000AF0346B9607A60FB733C
:1033900000237B61FFF75CFF78617A68B968786920
:1033A000FFF78EFF024697F90F3011461846FFF7D8
:1033B0005DFF00BF1837BD4680BD80B582B000AF4D
:1033C00078607868FFF7B0FF034618460837BD46B7
:1033D00080BD000080B489B000AF78603960002300
:1033E0007B6100233B610023BB610023FB6165E13E
:1033F0000122FB6902FA03F37B613B681B687A696F
:1034000013403B613A697B699A4240F054813B68C2
:103410005B6803F00303012B05D03B685B6803F096
:103420000303022B30D17B689B68BB61FB695B00A7
:10343000032202FA03F3DB43BA691340BB613B6822
:10344000DA68FB695B0002FA03F3BA691343BB61F4
:103450007B68BA699A607B685B68BB610122FB6923
:1034600002FA03F3DB43BA691340BB613B685B6854
:103470001B0903F00102FB6902FA03F3BA69134363
:10348000BB617B68BA695A603B685B6803F0030301
:10349000032B17D07B68DB68BB61FB695B000322F1
:1034A00002FA03F3DB43BA691340BB613B689A68D5
:1034B000FB695B0002FA03F3BA691343BB617B68E3
:1034C000BA69DA603B685B6803F00303022B23D11F
:1034D000FB69DA087B68083253F82230BB61FB696C
:1034E00003F007039B000F2202FA03F3DB43BA69E0
:1034F0001340BB613B681A69FB6903F007039B003B
:1035000002FA03F3BA691343BB61FB69DA087B680B
:103510000832B96943F822107B681B68BB61FB69FC
:103520005B00032202FA03F3DB43BA691340BB6179
:103530003B685B6803F00302FB695B0002FA03F37C
:10354000BA691343BB617B68BA691A603B685B6800
:1035500003F44033002B00F0AE800023FB605D4B92
:103560005B6C5C4A43F4804353645A4B5B6C03F4DA
:103570008043FB60FB68584AFB699B08023352F8A2
:103580002330BB61FB6903F003039B000F2202FAA7
:1035900003F3DB43BA691340BB617B684F4A934234
:1035A00025D07B684E4A93421FD07B684D4A934298
:1035B00019D07B684C4A934213D07B684B4A9342A4
:1035C0000DD07B684A4A934207D07B68494A9342B0
:1035D00001D106230CE007230AE0052308E00423B9
:1035E00006E0032304E0022302E0012300E00023BD
:1035F000FA6902F0030292009340BA691343BB6177
:103600003549FB699B080233BA6941F823203A4BDC
:103610009B68BB613B69DB43BA691340BB613B6894
:103620005B6803F48013002B03D0BA693B69134332
:10363000BB61314ABB6993602F4BDB68BB613B695F
:10364000DB43BA691340BB613B685B6803F400135A
:10365000002B03D0BA693B691343BB61264ABB699F
:10366000D360254B5B68BB613B69DB43BA691340A0
:10367000BB613B685B6803F40033002B03D0BA697D
:103680003B691343BB611C4ABB6953601A4B1B68FF
:10369000BB613B69DB43BA691340BB613B685B6854
:1036A00003F48033002B03D0BA693B691343BB6139
:1036B000114ABB691360FB690133FB61FB690F2B86
:1036C0007FF696AE00BF00BF2437BD465DF8047B91
:1036D000704700BF0038024000380140000002403F
:1036E0000004024000080240000C024000100240AA
:1036F0000014024000180240003C014080B483B036
:1037000000AF78600B467B8013467B707B78002B84
:1037100003D07A887B689A6103E07B881A047B680F
:103720009A6100BF0C37BD465DF8047B704700000E
:1037300080B584B000AF78607B68002B01D1012395
:103740002BE17B6893F83D30DBB2002B06D17B6820
:10375000002283F83C207868FEF724FE7B68242250
:1037600083F83D207B681B681A687B681B6822F021
:1037700001021A607B681B681A687B681B6842F448
:1037800000421A607B681B681A687B681B6822F419
:1037900000421A6001F07EF8F8607B685B68814A3D
:1037A000934207D8FB68804A934294BF01230023C9
:1037B000DBB206E0FB687D4A934294BF01230023FD
:1037C000DBB2002B01D00123E7E0FB68784AA2FBC3
:1037D00003239B0CBB607B681B685B6823F03F0185
:1037E0007B681B68BA680A435A607B681B681B6A5F
:1037F00023F03F017B685B686A4A934202D8BB684A
:10380000013309E0BB684FF4967202FB03F3694A87
:10381000A2FB03239B0901337A6812680B431362EE
:103820007B681B68DB6923F44F4222F0FF027B6850
:103830005B685C498B4219D8FB68591E7B685B68E2
:103840005B00B1FBF3F3591C40F6FC730B40002BFB
:103850000AD0FB68591E7B685B685B00B1FBF3F321
:103860000133C3F30B0351E004234FE07B689B68F3
:10387000002B11D1FB68581E7B6859680B465B0012
:103880000B44B0FBF3F30133C3F30B03002B0CBF6A
:1038900001230023DBB212E0FB68581E7B685968E5
:1038A0000B469B000B4499000B44B0FBF3F3013330
:1038B000C3F30B03002B0CBF01230023DBB2002B4F
:1038C00001D0012322E07B689B68002B0ED1FB68AE
:1038D000581E7B6859680B465B000B44B0FBF3F342
:1038E0000133C3F30B0343F400430FE0FB68581E9E
:1038F0007B6859680B469B000B4499000B44B0FB56
:10390000F3F30133C3F30B0343F4404379680968CD
:103910001343CB617B681B681B6823F0C0017B6885
:10392000DA697B681B6A1A437B681B680A431A6062
:103930007B681B689B6823F4034323F0FF037A68CA
:1039400011697A68D26811437A6812680B439360F0
:103950007B681B68DB6823F0FF017B685A697B6822
:103960009B691A437B681B680A43DA607B681B68A3
:103970001A687B681B6842F001021A607B680022AB
:103980001A647B68202283F83D207B6800221A633A
:103990007B68002283F83E20002318461037BD467E
:1039A00080BD00BFA08601007F841E00FF083D008F
:1039B00083DE1B43D34D621080B588B002AFF86040
:1039C000084611461A4603467B810B463B81134647
:1039D000FB80FFF777F97861FB6893F83D30DBB245
:1039E000202B40F0D9807B690093192301226D4977
:1039F000F86800F07FFC0346002B01D00223CCE0E6
:103A0000FB6893F83C30012B01D10223C5E0FB6831
:103A1000012283F83C20FB681B681B6803F001034C
:103A2000012B07D0FB681B681A68FB681B6842F013
:103A300001021A60FB681B681A68FB681B6822F4A5
:103A400000621A60FB68212283F83D20FB68402257
:103A500083F83E20FB6800221A64FB683A6A5A62C7
:103A6000FB68BA8C5A85FB685B8D9AB2FB681A8535
:103A7000FB684D4ADA62F8883A8979897B69019353
:103A8000BB6A00930346F86800F0B6FA0346002BC1
:103A900052D0012381E07A69B96AF86800F000FD2C
:103AA0000346002B0DD0FB681B6C042B07D1FB6871
:103AB0001B681A68FB681B6842F400721A600123D5
:103AC0006BE0FB685B6A1A78FB681B681A61FB682D
:103AD0005B6A5A1CFB685A62FB681B8D013B9AB2F9
:103AE000FB681A85FB685B8D9BB2013B9AB2FB6851
:103AF0005A85FB681B685B6903F00403042B1BD128
:103B0000FB681B8D002B17D0FB685B6A1A78FB687B
:103B10001B681A61FB685B6A5A1CFB685A62FB6887
:103B20001B8D013B9AB2FB681A85FB685B8D9BB2CB
:103B3000013B9AB2FB685A85FB681B8D002BAAD10A
:103B40007A69B96AF86800F0ECFC0346002B0DD0E6
:103B5000FB681B6C042B07D1FB681B681A68FB68A9
:103B60001B6842F400721A60012316E0FB681B68B0
:103B70001A68FB681B6842F400721A60FB68202216
:103B800083F83D20FB68002283F83E20FB6800227A
:103B900083F83C20002300E0022318461837BD4676
:103BA00080BD00BF020010000000FFFF80B58CB098
:103BB00002AFF860084611461A4603467B810B4661
:103BC0003B811346FB80FFF77DF87862FB6893F832
:103BD0003D30DBB2202B40F008827B6A0093192332
:103BE00001227B49F86800F085FB0346002B01D0D9
:103BF0000223FBE1FB6893F83C30012B01D1022347
:103C0000F4E1FB68012283F83C20FB681B681B6819
:103C100003F00103012B07D0FB681B681A68FB68DF
:103C20001B6842F001021A60FB681B681A68FB6897
:103C30001B6822F400621A60FB68222283F83D2090
:103C4000FB68402283F83E20FB6800221A64FB6870
:103C50003A6B5A62FB68BA8E5A85FB685B8D9AB2E2
:103C6000FB681A85FB685B4ADA62F8883A897989C9
:103C70007B6A0193BB6B00930346F86800F052FA2D
:103C80000346002B01D00123B0E1FB681B8D002B04
:103C900013D100233B62FB681B685B693B62FB68D6
:103CA0001B689B693B623B6AFB681B681A68FB6880
:103CB0001B6842F400721A6084E1FB681B8D012BC3
:103CC0001BD1FB681B681A68FB681B6822F48062C2
:103CD0001A600023FB61FB681B685B69FB61FB6882
:103CE0001B689B69FB61FB69FB681B681A68FB68C2
:103CF0001B6842F400721A6064E1FB681B8D022BA2
:103D00001BD1FB681B681A68FB681B6822F4806281
:103D10001A60FB681B681A68FB681B6842F4006243
:103D20001A600023BB61FB681B685B69BB61FB68B1
:103D30001B689B69BB61BB6944E100237B61FB6835
:103D40001B685B697B61FB681B689B697B617B69A6
:103D500038E1FB681B8D032B00F2F180FB681B8DA3
:103D6000012B23D17A6AB96BF86800F01BFC03467B
:103D7000002B01D0012339E1FB681B681A69FB683D
:103D80005B6AD2B21A70FB685B6A5A1CFB685A62A3
:103D9000FB681B8D013B9AB2FB681A85FB685B8D43
:103DA0009BB2013B9AB2FB685A850BE1FB681B8D05
:103DB000022B4ED17B6A0093BB6B00220649F86848
:103DC00000F098FA0346002B08D001230EE100BF53
:103DD000020010000000FFFF04000100FB681B68E8
:103DE0001A68FB681B6842F400721A60FB681B6863
:103DF0001A69FB685B6AD2B21A70FB685B6A5A1C6C
:103E0000FB685A62FB681B8D013B9AB2FB681A85FE
:103E1000FB685B8D9BB2013B9AB2FB685A85FB68DD
:103E20001B681A69FB685B6AD2B21A70FB685B6A2E
:103E30005A1CFB685A62FB681B8D013B9AB2FB68F7
:103E40001A85FB685B8D9BB2013B9AB2FB685A8571
:103E5000B8E07B6A0093BB6B00226649F86800F00B
:103E600049FA0346002B01D00123BFE0FB681B6821
:103E70001A68FB681B6822F480621A60FB681B6882
:103E80001A69FB685B6AD2B21A70FB685B6A5A1CDB
:103E9000FB685A62FB681B8D013B9AB2FB681A856E
:103EA000FB685B8D9BB2013B9AB2FB685A857B6ACB
:103EB0000093BB6B00224F49F86800F01BFA0346E1
:103EC000002B01D0012391E0FB681B681A68FB6896
:103ED0001B6842F400721A60FB681B681A69FB6871
:103EE0005B6AD2B21A70FB685B6A5A1CFB685A6242
:103EF000FB681B8D013B9AB2FB681A85FB685B8DE2
:103F00009BB2013B9AB2FB685A85FB681B681A6931
:103F1000FB685B6AD2B21A70FB685B6A5A1CFB686A
:103F20005A62FB681B8D013B9AB2FB681A85FB68DD
:103F30005B8D9BB2013B9AB2FB685A8542E07A6A7C
:103F4000B96BF86800F02EFB0346002B01D001236B
:103F50004CE0FB681B681A69FB685B6AD2B21A7096
:103F6000FB685B6A5A1CFB685A62FB681B8D013B4D
:103F70009AB2FB681A85FB685B8D9BB2013B9AB2D3
:103F8000FB685A85FB681B685B6903F00403042B1C
:103F900018D1FB681B681A69FB685B6AD2B21A7099
:103FA000FB685B6A5A1CFB685A62FB681B8D013B0D
:103FB0009AB2FB681A85FB685B8D9BB2013B9AB293
:103FC000FB685A85FB681B8D002B7FF4C2AEFB6833
:103FD000202283F83D20FB68002283F83E20FB6806
:103FE000002283F83C20002300E0022318462837F3
:103FF000BD4680BD0400010080B588B002AFF86006
:10400000084611461A4603467B810B463B81134600
:10401000FB80FB681B681A68FB681B6842F48072AF
:104020001A607B6A00933B6A00224FF00111F86826
:1040300000F060F90346002B0DD0FB681B681B687D
:1040400003F48073B3F5807F03D1FB684FF40072F3
:104050001A6403235FE07B89DBB21A46FB681B68A6
:1040600002F0FE021A617B6A3A6A2D49F86800F094
:1040700098F90346002B01D001234CE000237B611B
:10408000FB681B685B697B61FB681B689B697B61E4
:104090007B697A6A396AF86800F002FA0346002BF5
:1040A0000DD0FB681B6C042B07D1FB681B681A68DA
:1040B000FB681B6842F400721A6001232BE0FB8846
:1040C000012B05D13B89DAB2FB681B681A6121E03C
:1040D0003B891B0A9BB2DAB2FB681B681A617A6AD9
:1040E000396AF86800F0DCF90346002B0DD0FB6854
:1040F0001B6C042B07D1FB681B681A68FB681B68E4
:1041000042F400721A60012305E03B89DAB2FB68D1
:104110001B681A61002318461837BD4680BD00BFD2
:104120000200010080B588B002AFF8600846114671
:104130001A4603467B810B463B811346FB80FB6896
:104140001B681A68FB681B6842F480621A60FB688F
:104150001B681A68FB681B6842F480721A607B6AED
:1041600000933B6A00224FF00111F86800F0C2F89A
:104170000346002B0DD0FB681B681B6803F480739B
:10418000B3F5807F03D1FB684FF400721A640323F8
:10419000AAE07B89DBB21A46FB681B6802F0FE02CC
:1041A0001A617B6A3A6A5249F86800F0FAF80346E5
:1041B000002B01D0012397E000237B61FB681B6883
:1041C0005B697B61FB681B689B697B617B697A6AC1
:1041D000396AF86800F064F90346002B0DD0FB68DB
:1041E0001B6C042B07D1FB681B681A68FB681B68F3
:1041F00042F400721A60012376E0FB88012B05D19E
:104200003B89DAB2FB681B681A6121E03B891B0A13
:104210009BB2DAB2FB681B681A617A6A396AF8687D
:1042200000F03EF90346002B0DD0FB681B6C042BFD
:1042300007D1FB681B681A68FB681B6842F40072B0
:104240001A60012350E03B89DAB2FB681B681A61EF
:104250007A6A396AF86800F023F90346002B0DD01A
:10426000FB681B6C042B07D1FB681B681A68FB6892
:104270001B6842F400721A60012335E0FB681B687A
:104280001A68FB681B6842F480721A607B6A0093AC
:104290003B6A00224FF00111F86800F02BF803464A
:1042A000002B0DD0FB681B681B6803F48073B3F50B
:1042B000807F03D1FB684FF400721A64032313E07C
:1042C0007B89DBB243F00103DAB2FB681B681A6139
:1042D0007B6A3A6A0649F86800F063F80346002BE7
:1042E00001D0012300E0002318461837BD4680BDE9
:1042F0000200010080B584B000AFF860B9603B6097
:104300001346FB7125E03B68B3F1FF3F21D0FEF778
:10431000D9FC0246BB69D31A3A689A4202D33B6879
:10432000002B16D1FB6800221A63FB68202283F859
:104330003D20FB68002283F83E20FB681B6C43F0A5
:104340002002FB681A64FB68002283F83C200123EA
:1043500023E0BB681B0CDBB2012B0DD1FB681B6893
:104360005B69DA43BB6813409BB2002B0CBF01238F
:104370000023DBB21A460CE0FB681B689B69DA433A
:10438000BB6813409BB2002B0CBF01230023DBB2A0
:104390001A46FB799A42B6D0002318461037BD461C
:1043A00080BD80B584B000AFF860B9607A603B60D2
:1043B00051E0FB681B685B6903F48063B3F5806FB1
:1043C00023D1FB681B681A68FB681B6842F4007203
:1043D0001A60FB681B686FF480625A61FB680022F8
:1043E0001A63FB68202283F83D20FB68002283F8D3
:1043F0003E20FB681B6C43F00402FB681A64FB68F8
:10440000002283F83C20012346E07B68B3F1FF3FA4
:1044100021D0FEF757FC02463B68D31A7A689A42CD
:1044200002D37B68002B16D1FB6800221A63FB685D
:10443000202283F83D20FB68002283F83E20FB68A1
:104440001B6C43F02002FB681A64FB68002283F8AF
:104450003C20012320E0BB681B0CDBB2012B0CD1FC
:10446000FB681B685B69DA43BB6813409BB2002B97
:1044700014BF01230023DBB20BE0FB681B689B69C0
:10448000DA43BB6813409BB2002B14BF0123002307
:10449000DBB2002B8DD1002318461037BD4680BDFE
:1044A00080B584B000AFF860B9607A602DE0F8683C
:1044B00000F0CEF80346002B01D001232DE0BB68AD
:1044C000B3F1FF3F21D0FEF7FDFB02467B68D31A14
:1044D000BA689A4202D3BB68002B16D1FB6800224F
:1044E0001A63FB68202283F83D20FB68002283F8D2
:1044F0003E20FB681B6C43F02002FB681A64FB68DB
:10450000002283F83C20012307E0FB681B685B69FD
:1045100003F08003802BCAD1002318461037BD4614
:1045200080BD80B584B000AFF860B9607A602DE0DE
:10453000F86800F08DF80346002B01D001232DE030
:10454000BB68B3F1FF3F21D0FEF7BCFB02467B689E
:10455000D31ABA689A4202D3BB68002B16D1FB6803
:1045600000221A63FB68202283F83D20FB680022AA
:1045700083F83E20FB681B6C43F02002FB681A6442
:10458000FB68002283F83C20012307E0FB681B68DE
:104590005B6903F00403042BCAD1002318461037CB
:1045A000BD4680BD80B584B000AFF860B9607A6068
:1045B00042E0FB681B685B6903F01003102B19D104
:1045C000FB681B686FF010025A61FB6800221A63D7
:1045D000FB68202283F83D20FB68002283F83E2000
:1045E000FB681A6CFB681A64FB68002283F83C20A5
:1045F000012329E0FEF766FB02467B68D31ABA68FE
:104600009A4202D3BB68002B16D1FB6800221A63C2
:10461000FB68202283F83D20FB68002283F83E20BF
:10462000FB681B6C43F02002FB681A64FB680022E5
:1046300083F83C20012307E0FB681B685B6903F0FB
:104640004003402BB5D1002318461037BD4680BD2E
:1046500080B483B000AF78607B681B685B6903F44B
:104660008063B3F5806F1BD17B681B686FF4806239
:104670005A617B6800221A637B68202283F83D2000
:104680007B68002283F83E207B681B6C43F00402A9
:104690007B681A647B68002283F83C20012300E0D9
:1046A000002318460C37BD465DF8047B70470000B8
:1046B00080B584B000AF786039607B68002B01D191
:1046C0000123CCE0684B1B6803F00F033A689A4261
:1046D0000CD9654B3A68D2B21A70634B1B6803F071
:1046E0000F033A689A4201D00123B8E07B681B6847
:1046F00003F00203002B20D07B681B6803F0040347
:10470000002B05D0594B9B68584A43F4E053936003
:104710007B681B6803F00803002B05D0534B9B6894
:10472000524A43F460439360504B9B6823F0F0027D
:104730007B689B684D4913438B607B681B6803F063
:104740000103002B44D07B685B68012B07D1474BEA
:104750001B6803F40033002B19D101237FE07B6831
:104760005B68022B03D07B685B68032B07D13F4B50
:104770001B6803F00073002B09D101236FE03B4B52
:104780001B6803F00203002B01D1012367E0374BC4
:104790009B6823F003027B685B68344913438B609A
:1047A000FEF790FAF8600AE0FEF78CFA0246FB6822
:1047B000D31A41F28832934201D903234FE02B4BA5
:1047C0009B6803F00C027B685B689B009A42EBD10C
:1047D000254B1B6803F00F033A689A420CD2224B18
:1047E0003A68D2B21A70204B1B6803F00F033A6884
:1047F0009A4201D0012332E07B681B6803F0040376
:10480000002B08D0194B9B6823F4E0527B68DB68CF
:10481000164913438B607B681B6803F00803002B69
:1048200009D0124B9B6823F460427B681B69DB0054
:104830000E4913438B6000F041F802460B4B9B6816
:104840001B0903F00F030A49CB5C22FA03F3094A60
:104850001360094B1B681846FEF7F0F90023184651
:104860001037BD4680BD00BF003C0240003802400A
:10487000D8980008040000201000002080B400AF89
:10488000034B1B681846BD465DF8047B704700BFAC
:104890000400002080B500AFFFF7F0FF0246054B93
:1048A0009B689B0A03F007030349CB5C22FA03F3DE
:1048B000184680BD00380240E89800082DE9B04F46
:1048C000A6B000AF0023C7F88C300023C7F894309F
:1048D0000023C7F888300023C7F884300023C7F8C6
:1048E0009030C84B9B6803F00C030C2B00F27E81C8
:1048F00001A252F823F000BF2D490008ED4B00083B
:10490000ED4B0008ED4B000835490008ED4B000861
:10491000ED4B0008ED4B00083D490008ED4B000849
:10492000ED4B0008ED4B0008A74A0008B64BC7F84E
:1049300090305FE1B54BC7F890305BE1B14B5B68FD
:1049400003F03F03C7F88C30AE4B5B6803F4800381
:10495000002B31D0AB4B5B689B090022BB66FA662B
:10496000BB6EC3F308033B6600237B66A74BD7E906
:1049700018452A4603FB02F20023214601FB03F3FC
:104980001344A24A2146A1FB0212FA670A46BA67FB
:10499000FA6F1344FB67D7F88C300022BB65FA65C9
:1049A000D7E91623D7E91E01FBF766FE02460B4640
:1049B0001346C7F8943064E0924B5B689B09002271
:1049C0003B657A653B6DC3F30803BB640023FB645E
:1049D000D7E9124522462B464FF000004FF0000168
:1049E000590141EAD261500102460B462146511A53
:1049F0003961294663EB01037B614FF000024FF000
:104A00000003D7E904AB59468B01514643EA916351
:104A100051468A015146B2EB0108594663EB010940
:104A20004FF000024FF000034FEAC90343EA587306
:104A30004FEAC80290469946234618EB0303BB6031
:104A40002B4649EB0303FB604FF000024FF00003DD
:104A5000D7E9024529468B02214643EA9153214674
:104A60008A0210461946D7F88C3000223B647A64DB
:104A7000D7E91023FBF700FE02460B461346C7F8A2
:104A80009430604B5B681B0C03F0030301335B0045
:104A9000C7F88830D7F89420D7F88830B2FBF3F302
:104AA000C7F89030A6E0574B5B6803F03F03C7F8A8
:104AB0008C30544B5B6803F48003002B2AD0514B9D
:104AC0005B689B090022BB63FA63BB6BC3F30800FE
:104AD00000214E4B03FB01F2002300FB03F31344C0
:104AE0004A4AA0FB02127A670A463A677A6F134471
:104AF0007B67D7F88C3000223B637A63D7E90C23BD
:104B0000D7E91C01FBF7B8FD02460B461346C7F870
:104B100094305BE03B4B5B689B090022BB62FA620E
:104B2000BB6AC3F308033B6200237B62D7E90889B1
:104B300042464B464FF000004FF00001590141EA58
:104B4000D261500102460B464146B2EB010A49468A
:104B500063EB010B4FF000024FF000034FEA8B13A1
:104B600043EA9A634FEA8A12B2EB0A0463EB0B053D
:104B70004FF000024FF00003EB0043EA5473E200F1
:104B800014461D464346E3183B604B4645EB030382
:104B90007B604FF000024FF00003D7E90045294643
:104BA0008B02214643EA915321468A021046194658
:104BB000D7F88C300022BB61FA61D7E90623FBF7F6
:104BC0005BFD02460B461346C7F894300D4B5B68FD
:104BD0001B0F03F00703C7F88430D7F89420D7F8E9
:104BE0008430B2FBF3F3C7F8903003E0064BC7F80C
:104BF000903000BFD7F8903018469837BD46BDE8D2
:104C0000B08F00BF003802400024F40000366E016F
:104C100080B586B000AF78607B68002B01D101239E
:104C20008DE27B681B6803F00103002B00F083809A
:104C3000944B9B6803F00C03042B19D0914B9B6899
:104C400003F00C03082B06D18E4B5B6803F4800342
:104C5000B3F5800F0CD08B4B9B6803F00C030C2B2F
:104C600012D1884B5B6803F48003B3F5800F0BD13E
:104C7000844B1B6803F40033002B5BD07B685B68BC
:104C8000002B57D101235AE27B685B68B3F5803F64
:104C900006D17C4B1B687B4A43F4803313601DE0D4
:104CA0007B685B68B3F5A02F0CD1764B1B68754A07
:104CB00043F480231360734B1B68724A43F48033C0
:104CC00013600BE06F4B1B686E4A23F48033136054
:104CD0006C4B1B686B4A23F4802313607B685B6812
:104CE000002B13D0FDF7EEFF386108E0FDF7EAFF77
:104CF00002463B69D31A642B01D903231FE2614B9F
:104D00001B6803F40033002BF0D014E0FDF7DAFF4A
:104D1000386108E0FDF7D6FF02463B69D31A642BE1
:104D200001D903230BE2574B1B6803F40033002B1C
:104D3000F0D100E000BF7B681B6803F00203002B8A
:104D40006FD0504B9B6803F00C03002B17D04D4BDA
:104D50009B6803F00C03082B05D14A4B5B6803F4F6
:104D60008003002B0BD0474B9B6803F00C030C2BEC
:104D70001CD1444B5B6803F48003002B16D1414BDC
:104D80001B6803F00203002B05D07B68DB68012B56
:104D900001D00123D3E13B4B1B6823F0F8027B6871
:104DA0001B69DB00374913430B603AE07B68DB6823
:104DB000002B20D0344B01221A60FDF783FF3861AD
:104DC00008E0FDF77FFF02463B69D31A022B01D9A9
:104DD0000323B4E12B4B1B6803F00203002BF0D03C
:104DE000284B1B6823F0F8027B681B69DB00254910
:104DF00013430B6015E0244B00221A60FDF762FF9D
:104E0000386108E0FDF75EFF02463B69D31A022BCA
:104E100001D9032393E11B4B1B6803F00203002B12
:104E2000F0D17B681B6803F00803002B36D07B6849
:104E30005B69002B16D0154B01221A60FDF742FF6B
:104E4000386108E0FDF73EFF02463B69D31A022BAA
:104E500001D9032373E10B4B5B6F03F00203002BBB
:104E6000F0D01BE0094B00221A60FDF72BFF3861E0
:104E70000EE0FDF727FF02463B69D31A022B07D944
:104E800003235CE10038024000004742800E4742A5
:104E90008A4B5B6F03F00203002BEAD17B681B682F
:104EA00003F00403002B00F097800023FB75834B75
:104EB0001B6C03F08053002B0FD10023BB607F4B92
:104EC0001B6C7E4A43F0805313647C4B1B6C03F0D5
:104ED0008053BB60BB680123FB75794B1B6803F4EF
:104EE0008073002B18D1764B1B68754A43F480738E
:104EF0001360FDF7E7FE386108E0FDF7E3FE0246C8
:104F00003B69D31A022B01D9032318E16C4B1B68B0
:104F100003F48073002BF0D07B689B68012B06D1D3
:104F2000664B1B6F654A43F0010313671CE07B6807
:104F30009B68052B0CD1614B1B6F604A43F0040347
:104F400013675E4B1B6F5D4A43F0010313670BE071
:104F50005A4B1B6F594A23F001031367574B1B6FC2
:104F6000564A23F0040313677B689B68002B15D017
:104F7000FDF7A8FE38610AE0FDF7A4FE02463B6992
:104F8000D31A41F28832934201D90323D7E04B4B25
:104F90001B6F03F00203002BEED014E0FDF792FE2E
:104FA00038610AE0FDF78EFE02463B69D31A41F2F2
:104FB0008832934201D90323C1E0404B1B6F03F0B9
:104FC0000203002BEED1FB7D012B05D13B4B1B6C6B
:104FD0003A4A23F0805313647B689B69002B00F0EE
:104FE000AD80364B9B6803F00C03082B60D07B68C8
:104FF0009B69022B45D1334B00221A60FDF762FEFC
:10500000386108E0FDF75EFE02463B69D31A022BC9
:1050100001D9032393E0294B1B6803F00073002B95
:10502000F0D17B68DA697B681B6A1A437B685B6A2C
:105030009B011A437B689B6A5B08013B1B041A4374
:105040007B68DB6A1B061A437B681B6B1B071B49CB
:1050500013434B601B4B01221A60FDF733FE38618E
:1050600008E0FDF72FFE02463B69D31A022B01D957
:10507000032364E0114B1B6803F00073002BF0D096
:105080005CE0104B00221A60FDF71CFE386108E05E
:10509000FDF718FE02463B69D31A022B01D9032300
:1050A0004DE0064B1B6803F00073002BF0D145E088
:1050B0007B689B69012B07D1012340E00038024047
:1050C00000700040600047421F4B5B68FB607B68DC
:1050D0009B69012B30D0FB6803F480027B68DB699D
:1050E0009A4229D1FB6803F03F027B681B6A9A420F
:1050F00022D1FA6847F6C07313407A68526A920167
:10510000934219D1FB6803F440327B689B6A5B08C9
:10511000013B1B049A420FD1FB6803F070627B686D
:10512000DB6A1B069A4207D1FB6803F0E0427B680A
:105130001B6B1B079A4201D0012300E00023184695
:105140001837BD4680BD00BF0038024080B582B030
:1051500000AF78607B68002B01D101237BE07B6886
:105160005B6A002B08D17B685B68B3F5827F09D04E
:105170007B680022DA6105E07B6800221A617B68A7
:1051800000225A617B6800229A627B6893F8513052
:10519000DBB2002B06D17B68002283F850207868B0
:1051A000FDF7F4F97B68022283F851207B681B68C5
:1051B0001A687B681B6822F040021A607B685B6893
:1051C00003F482727B689B6803F404431A437B6890
:1051D000DB6803F400631A437B681B6903F0020376
:1051E0001A437B685B6903F001031A437B689B6980
:1051F00003F400731A437B68DB6903F038031A4336
:105200007B681B6A03F0800342EA03017B689B6AA8
:1052100003F400527B681B680A431A607B689B6931
:105220001B0C03F004017B685B6A03F010027B68CF
:105230001B680A435A607B681B68DA697B681B68D5
:1052400022F40062DA617B6800225A657B680122E1
:1052500083F85120002318460837BD4680BD80B52D
:1052600088B000AFF860B9603B601346FB80002354
:10527000FB77FB6893F85030012B01D1022326E124
:10528000FB68012283F85020FDF71CFDB861FB8804
:10529000FB82FB6893F85130DBB2012B02D0022372
:1052A000FB770BE1BB68002B02D0FB88002B02D1FF
:1052B0000123FB7702E1FB68032283F85120FB689E
:1052C00000225A65FB68BA681A63FB68FA889A86F6
:1052D000FB68FA88DA86FB6800229A63FB68002282
:1052E0009A87FB680022DA87FB6800225A64FB6811
:1052F00000221A64FB689B68B3F5004F0FD1FB686E
:105300001B681A68FB681B6822F040021A60FB6881
:105310001B681A68FB681B6842F480421A60FB68CD
:105320001B681B6803F04003402B07D0FB681B6819
:105330001A68FB681B6842F040021A60FB68DB6871
:10534000B3F5006F4BD1FB685B68002B02D0FB8A82
:10535000012B3ED1FB681B6B1A88FB681B68DA6067
:10536000FB681B6B9A1CFB681A63FB68DB8E9BB2A5
:10537000013B9AB2FB68DA862BE0FB681B689B68EE
:1053800003F00203022B12D1FB681B6B1A88FB6827
:105390001B68DA60FB681B6B9A1CFB681A63FB686E
:1053A000DB8E9BB2013B9AB2FB68DA8611E0FDF717
:1053B00089FC0246BB69D31A3A689A4203D83B6813
:1053C000B3F1FF3F02D13B68002B02D10323FB77EF
:1053D00074E0FB68DB8E9BB2002BCED14CE0FB6807
:1053E0005B68002B02D0FB8A012B40D1FB681A6B53
:1053F000FB681B680C3312781A70FB681B6B5A1C15
:10540000FB681A63FB68DB8E9BB2013B9AB2FB68B8
:10541000DA862CE0FB681B689B6803F00203022B12
:1054200013D1FB681A6BFB681B680C3312781A7077
:10543000FB681B6B5A1CFB681A63FB68DB8E9BB214
:10544000013B9AB2FB68DA8611E0FDF73BFC0246AD
:10545000BB69D31A3A689A4203D83B68B3F1FF3F5D
:1054600002D13B68002B02D10323FB7726E0FB68C7
:10547000DB8E9BB2002BCDD1BA693968F86800F099
:1054800055FA0346002B02D0FB6820225A65FB68C0
:105490009B68002B0AD100233B61FB681B68DB681B
:1054A0003B61FB681B689B683B613B69FB685B6D0C
:1054B000002B02D00123FB7700E000BFFB68012234
:1054C00083F85120FB68002283F85020FB7F1846A8
:1054D0002037BD4680BD80B58CB000AFF860B960A4
:1054E0007A607B800123FB62002387F82B30FB6806
:1054F00093F85030012B01D102238AE1FB6801228D
:1055000083F85020FDF7DEFB7862FB6893F851309A
:1055100087F82330FB685B68FB617B887B8397F8A7
:105520002330012B0FD0FB69B3F5827F07D1FB68D5
:105530009B68002B03D197F82330042B03D0022360
:1055400087F82B305BE1BB68002B05D07B68002B14
:1055500002D07B88002B03D1012387F82B304EE14A
:10556000FB6893F85130DBB2042B03D0FB680522B3
:1055700083F85120FB6800225A65FB687A689A63B9
:10558000FB687A88DA87FB687A889A87FB68BA684A
:105590001A63FB687A88DA86FB687A889A86FB68E1
:1055A00000221A64FB6800225A64FB681B681B68AF
:1055B00003F04003402B07D0FB681B681A68FB68A8
:1055C0001B6842F040021A60FB68DB68B3F5006FAD
:1055D00078D1FB685B68002B02D07B8B012B66D1F6
:1055E000FB681B6B1A88FB681B68DA60FB681B6B27
:1055F0009A1CFB681A63FB68DB8E9BB2013B9AB274
:10560000FB68DA8653E0FB681B689B6803F00203C3
:10561000022B1BD1FB68DB8E9BB2002B16D0FB6AE2
:10562000012B13D1FB681B6B1A88FB681B68DA60BF
:10563000FB681B6B9A1CFB681A63FB68DB8E9BB2D2
:10564000013B9AB2FB68DA860023FB62FB681B68A9
:105650009B6803F00103012B19D1FB68DB8F9BB220
:10566000002B14D0FB681B68DA68FB689B6B92B256
:105670001A80FB689B6B9A1CFB689A63FB68DB8F44
:105680009BB2013B9AB2FB68DA870123FB62FDF70C
:1056900019FB02467B6AD31ABA6B9A4207D8BB6BD6
:1056A000B3F1FF3F03D0032387F82B30A7E0FB685B
:1056B000DB8E9BB2002BA6D1FB68DB8F9BB2002B4D
:1056C000A1D17CE0FB685B68002B02D07B8B012BB7
:1056D0006BD1FB681A6BFB681B680C3312781A706D
:1056E000FB681B6B5A1CFB681A63FB68DB8E9BB262
:1056F000013B9AB2FB68DA8657E0FB681B689B683F
:1057000003F00203022B1CD1FB68DB8E9BB2002B43
:1057100017D0FB6A012B14D1FB681A6BFB681B685E
:105720000C3312781A70FB681B6B5A1CFB681A63E7
:10573000FB68DB8E9BB2013B9AB2FB68DA860023E2
:10574000FB62FB681B689B6803F00103012B19D106
:10575000FB68DB8F9BB2002B14D0FB681B68DA68F8
:10576000FB689B6BD2B21A70FB689B6B5A1CFB6880
:105770009A63FB68DB8F9BB2013B9AB2FB68DA87C6
:105780000123FB62FDF79EFA02467B6AD31ABA6BCD
:105790009A4203D8BB6BB3F1FF3F02D1BB6B002B26
:1057A00003D1032387F82B3029E0FB68DB8E9BB203
:1057B000002BA2D1FB68DB8F9BB2002B9DD17A6AB4
:1057C000B96BF86800F0B2F80346002B06D001234D
:1057D00087F82B30FB6820225A6510E0FB689B6835
:1057E000002B0BD100237B61FB681B68DB687B61AE
:1057F000FB681B689B687B617B6900E000BFFB68FE
:10580000012283F85120FB68002283F8502097F88A
:105810002B3018463037BD4680BD000080B588B0BB
:1058200000AFF860B9603B601346FB71FDF74AFAC0
:105830000246BB6A9B1A3A681344FB61FDF742FAC1
:10584000B861394B1B685B011B0DFA6902FB03F35E
:105850007B6154E03B68B3F1FF3F50D0FDF732FA73
:105860000246BB69D31AFA699A4202D9FB69002B36
:105870003DD1FB681B685A68FB681B6822F0E00298
:105880005A60FB685B68B3F5827F11D1FB689B6847
:10589000B3F5004F04D0FB689B68B3F5806F07D168
:1058A000FB681B681A68FB681B6822F040021A60DC
:1058B000FB689B6AB3F5005F0FD1FB681B681A6831
:1058C000FB681B6822F400521A60FB681B681A68A8
:1058D000FB681B6842F400521A60FB68012283F8DF
:1058E0005120FB68002283F85020032317E07B69D6
:1058F000002B01D10023FB617B69013B7B61FB68CD
:105900001B689A68BB681340BA689A420CBF0123AF
:105910000023DBB21A46FB799A429BD1002318463A
:105920002037BD4680BD00BF0400002080B588B090
:1059300002AFF860B9607A601B4B1B681B4AA2FB80
:1059400003235B0D4FF47A7202FB03F37B61FB6868
:105950005B68B3F5827F12D17B680093BB6800223D
:105960008021F868FFF75AFF0346002B16D0FB682A
:105970005B6D43F02002FB685A6503230FE07B69EF
:10598000002B0AD07B69013B7B61FB681B689B682D
:1059900003F08003802BF2D000E000BF0023184604
:1059A0001837BD4680BD00BF04000020819F5E16F1
:1059B00080B500AF0449054803F068FA03461A466B
:1059C000034B1A7000BF80BDCC24002018000020BB
:1059D000C824002080B400AF00231846BD465DF8FF
:1059E000047B704780B582B000AF0346FB71FB7942
:1059F0001846FBF777F90346DBB218460837BD4671
:105A000080BD80B582B000AF0346FB71FB791846BC
:105A1000FBF74EFA0346DBB218460837BD4680BD99
:105A200080B584B000AFB9607A603B600346FB7319
:105A3000F87B3B687A68B968FBF750FA0346DBB23B
:105A400018461037BD4680BD80B584B000AFB96040
:105A50007A603B600346FB73F87B3B687A68B96801
:105A6000FBF7A6FA0346DBB218461037BD4680BDE9
:105A700080B582B000AF03463A60FB710B46BB7144
:105A8000FB79B9793A681846FBF716FB0346DBB297
:105A900018460837BD4680BD80B485B000AF0346C8
:105AA0003960FB80FB887F2B02D8FB88FB8125E0D7
:105AB0003B68002B0BD0FB88FF2B05D8FB88803B75
:105AC000124A32F8133000E00023FB8116E0002375
:105AD000FB8109E0FB890D4A32F81330FA889A42BB
